:020000040800F2
:10000000F8070020CD010008110900086D04000860
:100010000D09000899020008C30B00080000000049
:100020000000000000000000000000002B09000894
:100030009D02000800000000290900083D0A000890
:10004000E7010008E7010008E7010008E7010008F0
:10005000E7010008E7010008E7010008E7010008E0
:10006000E7010008E7010008E7010008E7010008D0
:10007000E7010008E7010008E7010008E7010008C0
:10008000E7010008E7010008E7010008E7010008B0
:10009000E7010008E7010008E7010008A1020008E5
:1000A000E7010008E7010008E7010008E701000890
:1000B000E7010008E7010008E7010008E701000880
:1000C000E7010008E7010008E7010008E701000870
:1000D000E7010008DD0A0008E7010008E701000861
:1000E000E7010008E7010008E7010008E701000850
:1000F000E7010008E7010008E7010008E701000840
:10010000E7010008E7010008E7010008E70100082F
:10011000E7010008E7010008E7010008E70100081F
:10012000E7010008E7010008E7010008E70100080F
:1001300000F002F800F03AF80AA090E8000C8244BF
:100140008344AAF10107DA4501D100F02FF8AFF29C
:10015000090EBAE80F0013F0010F18BFFB1A43F0A5
:1001600001031847DC2D0000FC2D0000103A24BFCD
:1001700078C878C1FAD8520724BF30C830C144BF0C
:1001800004680C607047000000230024002500264E
:10019000103A28BF78C1FBD8520728BF30C148BFEA
:1001A0000B6070471FB51FBD10B510BD00F046F8BD
:1001B0001146FFF7F7FF01F0BDFA00F064F803B451
:1001C000FFF7F2FF03BC00F017FE0000094880476C
:1001D00009480047FEE7FEE7FEE7FEE7FEE7FEE729
:1001E000FEE7FEE7FEE7FEE704480549054A064B41
:1001F00070470000410A000831010008F8010020A2
:10020000F8070020F8030020F8030020704770472B
:1002100070477047704710B500F008F8006810BDCF
:1002200010B5044600F002F8046010BD00487047A5
:100230009801002000487047980100207546FFF79C
:10024000F9FFAE4605006946534620F00700854693
:1002500018B020B5FFF7C8FFBDE820404FF00006FA
:100260004FF000074FF000084FF0000B21F007019E
:10027000AC46ACE8C009ACE8C009ACE8C009ACE8E1
:10028000C0098D46704710B50446AFF30080204684
:10029000BDE81040FFF793BF00BFFEE770470000C6
:1002A0002DE9F041202000F0A1F801286DD1384857
:1002B0000068002869D1202000F092F8022000F0A8
:1002C000B1F8404233490860042000F0ABF83249ED
:1002D0000860324A3249334801F036FA324A33492B
:1002E000334800F051F9334A3349344800F024F9D7
:1002F0002E48B0F9000002F0B1FB0446224629481E
:1003000001682F48006800F0DBFC2E490860224895
:1003100001682048006800F057FC2B49086022481B
:10032000B0F9000000F0C6FB2849086026480068C4
:1003300002F094FB074626480168384602F0A6FB07
:1003400005462048006802F089FB0646294602F06F
:1003500069FC044602F066FB1E4908600846006816
:100360001A490968401A1C4908601A480068174968
:100370000968084419490860174800F079F81748D7
:1003800001681548006800F099F8BDE8F0810000A8
:10039000948121426C000020700000205C0000204D
:1003A000580000205400002064000020620000205B
:1003B000600000206A000020680000206600002025
:1003C0000000002014000020180000201C00002065
:1003D00004000020200000202C000020300000201D
:1003E00001490860704700001404014001460020E4
:1003F0000022074B1B6803EA0102054B14331B68FC
:100400000B4013B10AB1012000E00020704700004A
:10041000000401400146002901DB084670474842BC
:10042000FCE7000070B504460025022C02D0042C25
:1004300014D10AE04FF0804000F032FB05B20021F9
:100440004FF0804000F034FB0AE0074800F028FB42
:1004500005B20021044800F02BFB01E0002500BF9D
:1004600000BF284670BD00000008004000BFFEE746
:10047000104B02681B689A4202DB0E4A1268026047
:100480000D4B02681B689A4202DC0B4A126802603C
:10049000084B0A681B689A4202DB064A12680A6027
:1004A000054B0A681B689A4202DC034A12680A601C
:1004B00070470000240000202800002070B5054689
:1004C0000C46002D07DB0120184908600020184960
:1004D000C1F8BC0106E0002014490860012014495D
:1004E000C1F8BC012846FFF795FF86B23146114896
:1004F00000F0D9FA002C08DB01200C49091F086024
:1005000000200B49C1F8B00107E000200749091F8E
:10051000086001200649C1F8B0012046FFF77AFFC4
:1005200086B23146034800F0C0FA70BDB88121425E
:1005300000802142002C01402DE9FC4104460D467B
:1005400016466B4606223B21682000F075F90746E7
:10055000BFB99DF801009DF8001040EA012000B2EB
:1005600020809DF803009DF8021040EA012000B2AF
:1005700028809DF805009DF8041040EA012000B293
:1005800030803846BDE8FC812DE9FC4104460D462B
:1005900016466B4606224321682000F04DF90746B7
:1005A000BFB99DF801009DF8001040EA012000B29B
:1005B00020809DF803009DF8021040EA012000B25F
:1005C00028809DF805009DF8041040EA012000B243
:1005D00030803846BDE8FC8110B500200E49086027
:1005E0000E48006820F470400C4908600846006816
:1005F00040F44050086000200949C1F88C0100F027
:1006000011F801200449086000F00CF800200449AA
:10061000C1F8900110BD000090812142000C014002
:100620000080214210B5022000F078FF10BD0000CC
:1006300010B500200E4908600E48006820F4704094
:100640000C4908600846006840F4405008600120EA
:100650000949C1F88C01FFF7E5FF01200449086052
:10066000FFF7E0FF00200449C1F8900110BD000031
:1006700090812142000C01400080214270B5054666
:1006800000241648006820F47040144908600846A9
:10069000006840F400400860002614E00020104983
:1006A0000860FFF7BFFF01200E49C1F89001600606
:1006B000040E0B488438006808B1601CC4B2FFF710
:1006C000B1FF701CC6B2082EE8DB15B9FFF7B0FF0A
:1006D00001E0FFF781FF204670BD0000000C0140E3
:1006E000908121420080214270B504461248006882
:1006F00020F47040104908600846006840F44050FB
:10070000086000200D490860002512E0E0090B494F
:10071000091F08606006040E01200949C1F8900114
:10072000FFF780FF002005490860FFF77BFF681C8A
:10073000C5B2082DEADB70BD000C0140908121425A
:100740000080214210B50E48006820F470400C492A
:1007500008600846006840F44050086001200949DC
:1007600008600949C1F89001FFF75CFF00200549C6
:100770000860FFF757FF00200349C1F8900110BD42
:10078000000C01408C8121420080214210B50E48AE
:10079000006820F470400C4908600846006840F486
:1007A000405008600020094908600949C1F88C01DF
:1007B000FFF738FF0120054908600549C1F88C01A1
:1007C000FFF730FF10BD0000000C01409081214276
:1007D0000080214210B500241448006820F47040C5
:1007E000124908600846006840F400400860012093
:1007F0000F490860FFF716FF01200E49C1F890016C
:10080000FFF710FF07E0601CC4B2FA2C03DDFFF70E
:10081000BDFF012010BD0648803800680028F2D1D5
:100820000349091D086000BFF4E70000000C014007
:100830008C812142008021422DE9F04106460F467D
:1008400014461D46FFF77EFF002141EA4601C8B26B
:10085000FFF74AFFFFF7BEFF20B1FFF797FF012028
:10086000BDE8F0813846FFF73FFFFFF7B3FFFFF722
:1008700069FF012101EB4601C8B2FFF735FFFFF721
:10088000A9FF0DE0012C04D10020FFF7F7FE28702E
:1008900003E00120FFF7F2FE2870601EC4B26D1C59
:1008A000002CEFD1FFF772FF0020D9E72DE9F041CE
:1008B00005460E4617469846FFF744FF002141EAD9
:1008C0004501C8B2FFF710FFFFF784FF20B1FFF723
:1008D0005DFF0120BDE8F0813046FFF705FFFFF71F
:1008E00079FF00240CE018F80400FFF7FDFEFFF785
:1008F00071FF18B1FFF74AFF0120EBE7601CC4B29B
:10090000BC42F0DBFFF742FF0020E3E700BFFEE759
:100910007047000002490143024A1160704700001D
:100920000000FA050CED00E07047704710B500F0CC
:1009300001F810BD0CB5002001900090334800680C
:1009400040F480303149086000BF3048006800F44E
:10095000003000900198401C0190009818B901984F
:10096000B0F5A06FF1D12948006800F4003010B153
:100970000120009001E0002000900098012843D160
:100980002348006840F010002149086008460068CC
:1009900020F0030008600846006840F0020008608C
:1009A0001A48406819494860084640684860084647
:1009B000406840F4806048600846406820F47C103D
:1009C00048600846406840F4E810486008460068FF
:1009D00040F08070086000BF0C48006800F00070B4
:1009E0000028F9D00948406820F003000749486012
:1009F0000846406840F00200486000BF0348406875
:100A000000F00C000828F9D10CBD000000100240D5
:100A100000200240042808D14FF0E021096941F08C
:100A200004014FF0E022116107E04FF0E021096975
:100A300021F004014FF0E02211617047704700007F
:100A400010B51348006840F00100114908600846DD
:100A50004068104908400E494860084600680E4941
:100A600008400B4908600846006820F480200860B0
:100A70000846406820F4FE0048604FF41F0088607C
:100A8000FFF754FF4FF000600449086010BD0000FC
:100A9000001002400000FFF8FFFFF6FE08ED00E046
:100AA0000146888C704781867047A0F840107047D7
:100AB000818470472DE9F0470446204601F071FB20
:100AC00007460022044B01F083FB054601F03AFB88
:100AD00081464846BDE8F0870000E0BF10B540F20F
:100AE00025511D4800F03EF810B31B4800F064F893
:100AF000C4B21A48008800F40040C8B917480088FA
:100B000000F4804060B10A2C03D000201349088013
:100B100020E01248008840F400401049088019E0A5
:100B20000D2C06D10D48008840F480400B49088008
:100B300010E00A480088C0F30D0009490C5407482A
:100B40000088401C0549088008460088C72801DD48
:100B50000020088010BD0000003801405000002037
:100B6000C000002070B502460024002300250020AC
:100B700040F66A16B14200D100BFC1F3421501F040
:100B80001F03012606FA03F3012D02D19689334093
:100B900006E0022D02D1168A334001E0968A3340E6
:100BA0000C12012606FA04F41688344013B10CB175
:100BB000012000E0002070BD01468888C0F30800D5
:100BC000704700BFFEE700002DE9F05F04460D46C8
:100BD000324E6019324908603248006801F03EFF29
:100BE0008246314601F052FF80462D48006801F0F0
:100BF00035FF824631464FF07E5002F013F88346AF
:100C0000514601F043FF8146414601F0E7FD0746AA
:100C100001F008FF2449086008460068214908607F
:100C200022480068204909680844204908600846AD
:100C3000006842F21071884202DB1C48006808E03C
:100C40001A4800681A49884201DC084601E0174842
:100C50000068164908600846006801F0FFFE8246F9
:100C600014480168504601F011FF80460E480068A4
:100C700001F0F4FE824610480168504601F006FF7C
:100C80008146414601F0AAFD074601F0CBFE0B4923
:100C9000086008460068BDE8F09F00003333333F2A
:100CA00078000020840000207C00002080000020CC
:100CB000F0D8FFFF100000200C000020740000207E
:100CC0002DE9F04782460D46144621460A48006841
:100CD00001F0DCFE804629460848006801F0D6FE97
:100CE0008146414601F07AFD074601F09BFE06462B
:100CF0003046BDE8F0870000080000200400002016
:100D0000490050EAC12018BF04204A0D18BF40F026
:100D1000010040F2FF72B2EB515F08BF40F00200E9
:100D2000012808BF052070472DE9F0414F1E00EB58
:100D3000C7010446D1E9000115461E4637F00602F8
:100D40000DD02A46334601F043FA7F1E04EBC70359
:100D5000D3E9002300F0A6FF37F00602F1D1022FFD
:100D600025D0042F13D0062F18BFBDE8F0812A46E6
:100D7000334601F02DFAD4E90A2300F093FF2A4606
:100D8000334601F025FAD4E9082300F08BFF2A4608
:100D9000334601F01DFAD4E9062300F083FF2A460A
:100DA000334601F015FAD4E9042300F07BFF2A460C
:100DB000334601F00DFAD4E9022300F073FF2A460E
:100DC000334601F005FAD4E90023BDE8F04100F014
:100DD00069BF012201F0CDBF00F064BF00221346BD
:100DE0001046114601F01AB8024A0020110701F01E
:100DF000C0BF000001FDFFFF00BF70472DE9F04DAF
:100E00008D4F21F0004A86B005460C46BA452ADBD4
:100E1000AAEB070028430AD08848824501DC1AD192
:100E2000CDB106B02846BDE8F04DFFF7D2BF844AE9
:100E3000844B284601F0CCF907460E46824A834B84
:100E40002846214601F0C4F906B03A463346BDE8CB
:100E5000F04D00F027BF0120FFF7E2F906B0BDE832
:100E6000F04DFFF7BBBF7A48824542DABAF1795FAD
:100E70000BDA2846FFF744FF042808BFFFF7B4FF4A
:100E8000284606B02146BDE8F08D2A460B4610469E
:100E900001F09EF9834602466E480E460B46062137
:100EA0007844FFF741FF5A46334601F091F98046F6
:100EB00069488A465A46334604217844FFF734FF8E
:100EC0005A46334601F084F900223B4600F0EAFE20
:100ED00002460B464046514600F0A0FF2A462346F4
:100EE00001F076F906B02A462346BDE8F04D00F041
:100EF000D9BE284624F0004100223D463B4601F081
:100F000065FA4FF0FF3201F034FF064602465348BF
:100F10000F460B4606217844FFF706FF32463B4654
:100F200001F056F9CDE900014D4832463B46042117
:100F30007844FFF7F9FE32463B4601F049F90022BA
:100F40002B4600F0AFFE834602913046394600F052
:100F500051FE804643480D46504517DCDDE900014F
:100F60005A46029B00F05AFF42462B4601F030F9E8
:100F700042462B4600F096FE012201F0FAFE304A6E
:100F8000304B01F015FB304A304B4CE04FF0000A7B
:100F900052460B46404600F085FECDE9031052460E
:100FA0002B461046194601F013F932463B4601F034
:100FB0000DFADDE9033200F031FF06460F46DDE9A8
:100FC00000015A46029B00F029FF8346009101224E
:100FD0003046394601F0CDFE194A1A4B01F0F6F9B8
:100FE00006460F4601224046294601F0C2FE5A46F7
:100FF000009B01F0EDF832463B4601F0D9FA064677
:101000000F4601225046294601F0B3FE0E4DDFF88F
:1010100058802A46434601F0D9F932463B4601F052
:10102000D5F92A46434601F0D1F9002CD8BF81F00A
:10103000004106B0BDE8F08D0000F03F0000F07FF9
:10104000075C143326A6913C182D4454FB21F93F2C
:101050000000E03FAC1F0000C21F0000361F000070
:101060004C1F00003333EF3FFB21E93F2DE9F84FE0
:1010700004460D4621F0004000917349814211DC85
:101080007249884201DC06D12CB120462946BDE8D0
:10109000F84FFFF79EBE6E48002DCCBF6D496E49DC
:1010A000BDE8F88F6D49814211DD6D498142D8BF9D
:1010B0004FF0FF366DDD20462946FFF721FE04285C
:1010C00008BFFFF791FE20462946BDE8F88F654925
:1010D000654F25F00045814233DD6449814219DDC9
:1010E000002632464FF080432046294600F0DAFDC4
:1010F00080468A4601222046294601F03AFE002217
:101100003B4601F055FA4246534600F087FE04463E
:101110000D463EE001260022BA463B4620462946BF
:1011200000F0C0FD80460F46002253462046294667
:1011300001F03EFA42463B4600F070FE04460D4682
:1011400027E04B4981421BDDDFF828A1022600225F
:1011500053462046294601F03BF800223B4600F06A
:10116000A1FD80460F46002253462046294601F045
:101170001FFA42463B4600F051FE04460D4608E089
:10118000032622462B4600203B4900F047FE04463A
:101190000D4622462B461046194601F019F88B469B
:1011A000824602460B4601F013F8074602463348D2
:1011B00088460B4606217844FFF7B6FD52465B464B
:1011C00001F006F882462E488B463A4643460521F2
:1011D0007844FFF7A9FD3A46434600F0F9FF02467E
:1011E0000B46002E504659460CDA00F05BFD2246B5
:1011F0002B4600F0EDFF01B022462B46BDE8F04F34
:1012000001F0E4B800F04EFD22462B4600F0E0FF6E
:101210001C4A7A4402EBC603D3E9002301F0C8F963
:1012200022462B4601F0C4F9174A7A4402EBC60362
:10123000D3E9002301F0CAF8009A002AB8BF81F070
:101240000041BDE8F88F0000000010440000F07F6E
:10125000182D4454FB21F93FFB21F9BF0000DC3F6E
:101260000000203E0000F33F0000F03F0000E63F9A
:10127000008003400000F83F0000F0BF4E1D00005A
:101280000C1D0000AA1C0000721C00002DE9F04D8E
:101290009446CCF1000423F000464CEA0404594F74
:1012A00046EAD4749A46884621F00042BC4206D8E9
:1012B000454240EA050442EAD474BC4204D9BDE880
:1012C000F04D6246FFF788BDAAF14055A5F17F6554
:1012D00055EA0C040BD0022404EAAA744A4DDFF844
:1012E0002CE144EAD87452EA000B04D00CE0BDE8CB
:1012F000F04DFFF7BBBE002C14BF012CBDE8F08DF4
:10130000022C30D0032C32D056EA0C0B0AD0BE424D
:1013100020D1BA4209D126F0804622F080423346DD
:10132000114617E000291ADB25E0DFF8E4B0FB44A2
:10133000002C04BFDBE90001BDE8F08D012C02BFE9
:10134000DBE9000181F00041BDE8F08D022C0AD0FC
:10135000032C0CD0BA4212D1B8F1000F0BDA2A4894
:101360002C49BDE8F08D28462B49BDE8F08D284674
:101370007146BDE8F08D24482849BDE8F08D921BE8
:1013800012153C2AC4BF204F244E10DCBAF1000FC6
:10139000BEBF12F13C0F00273E4608DB624600F05C
:1013A0003DFD21F00041FFF761FE07460E4694B176
:1013B000012C08BF86F000460DD0194A194B022CAB
:1013C0003846314615D001F0F3F82A46BDE8F04D15
:1013D000114B01F0EDB8002213463846314600F0BB
:1013E00075FE04BF0220FEF71BFF38463146BDE8FC
:1013F000F08D01F0DDF82A46BDE8F04D064B00F017
:10140000E5BF00000000F07F182D4454FB2109C007
:10141000061C0000FB21F9BFFB210940FB21F93F1D
:10142000075C143326A6A13C2DE9F0410446E07880
:1014300000F0C006E07800F03F05607800F00100A1
:1014400098B1EF102846E91705EB5171C910A5EBCB
:10145000C101491C01F0FF080B48006820B10A488F
:10146000414602683846904700BF607800F00800A7
:1014700030B10548406818B1B011034A5168884737
:101480000020BDE8F08100008801002010B56FF059
:101490000400FFF7BFFA0A4800680A49B0FBF1F000
:1014A000094908700846007800EB4001C1EBC01004
:1014B0004FF6FF7101EAC0000449088010BD00002A
:1014C0003400002000127A00480000204A0000206A
:1014D0000146114A12884A434FF0E0235A61002224
:1014E0009A611A46126942F001021A6100BF4FF078
:1014F000E022106900F001021AB100F48032002AE3
:10150000F5D04FF0E022126922F001024FF0E02303
:101510001A6100229A6170474A0000200146114A70
:1015200012784A434FF0E0235A6100229A611A462A
:10153000126942F001021A6100BF4FF0E022106907
:1015400000F001021AB100F48032002AF5D04FF009
:10155000E022126922F001024FF0E0231A6100221A
:101560009A617047480000202DE9F04F8DB0074682
:10157000884615469946DDE9166B00240020308028
:101580006B49887B5A4605A900F0F0F918B1601E36
:101590000DB0BDE8F08F6648807A00F01400002896
:1015A00067D09DF8140000069DF8151040EA014030
:1015B0009DF8161040EA01209DF817100843286096
:1015C0009DF8180000069DF8191040EA01409DF8AA
:1015D0001A1040EA01209DF81B10084368609DF82E
:1015E0001C0000069DF81D1040EA01409DF81E10E9
:1015F00040EA01209DF81F100843A8609DF82000D4
:1016000000069DF8211040EA01409DF8221040EAB2
:1016100001209DF823100843E86004F11000C4B2D3
:10162000286800140190686800140290A8680014EB
:101630000390E8680014049001984043029901FB6C
:101640000100039901FB0100049901FB010ABAF1B1
:10165000706F02DBBAF1885F05DD00F0E7F900206A
:101660003080401E94E7B6F9000040F4807030806E
:1016700000BF2F48807A00F0400020B305A9601C0D
:10168000085C095D40EA012000B2A8F8000005A945
:10169000E01C095C05AAA01C105C41EA002000B215
:1016A000A8F8020005A9601D095C201D105C41EA34
:1016B000002000B2A8F80400A01DC4B2B6F90000D2
:1016C00040F0080030801A48408900F4C07008B328
:1016D00005A9601C085C095D40EA012000B2388061
:1016E00005A9E01C095C05AAA01C105C41EA0020C9
:1016F00000B2788005A9601D095C201D105C41EADC
:10170000002000B2B880A01DC4B2B6F9000040F0BD
:10171000700030800648807A00F0030018B105A9F7
:101720000819FFF781FE484600F00CF800202FE76B
:10173000880100204FF4A060FFF7ECF8FFF7A6FE49
:1017400000BFFEE7704700002DE9F04F99B0044656
:101750000D4616464FF07E574FF000084FF0000937
:101760004FF0000A12A813A918AB0EAACDE9001079
:1017700014A916A8FFF7F8FE18B1012019B0BDE8AA
:10178000F08FBDF84C0000F4807000287ED00E98D9
:1017900001F064F983464FF09D4101F081F807465E
:1017A0000F9801F05BF983464FF09D4101F078F806
:1017B0008046109801F052F983464FF09D4101F0A8
:1017C0006FF88146119801F049F983464FF09D4129
:1017D00001F066F8824639464FF0804001F056F934
:1017E0004946059001F052F9414607904FF04040BC
:1017F00001F04CF95146059001F048F9069007991F
:1018000000F0ECFF834600F0BDFFCDE90801FFF7D3
:10181000F5FA4FF06632544BCDE90A0100F0D8FCDE
:10182000CDE90C0100F00CFA206049464FF08040F1
:1018300001F02CF94946029001F028F94146049044
:101840004FF0404001F022F94146029001F01EF9AC
:101850000390049901F0E6F983464FF07E5100F0C1
:10186000BDFF059000F08EFFCDE9080139464FF02D
:10187000804001F00BF94146039001F007F9494619
:1018800004904FF0804001F001F900E068E051461B
:10189000039001F0FBF88346049900F09FFF059048
:1018A00000F070FFCDE90601DDE90823FFF7EEFC4B
:1018B0004FF066322C4BCDE90A0100F089FCCDE9EE
:1018C0000C0100F0BDF928605146504601F0DEF8E9
:1018D00049460490484601F0D9F8414603904046F5
:1018E00001F0D4F839460190384601F0CFF8009065
:1018F000019900F073FF0290039901F093F9834678
:10190000049901F08FF9059000F03CFFCDE9080142
:101910005146384601F0BAF849460490404601F075
:10192000B5F80390049900F059FF4FF080410590FD
:1019300001F0ACF8834600F025FFCDE90601DDE9B2
:101940000823FFF7A3FC4FF06632074BCDE90A01ED
:1019500000F03EFCCDE90C0100F072F9306001E0CE
:1019600002200BE7002009E766A64C40F8B50446C4
:101970000F4616462C4890F8240010B94FF0FF305F
:10198000F8BD2948807A10B94FF0FF30F8E7264AB1
:101990001268917A244A526810786B460222FEF748
:1019A0004BFF10B14FF0FF30EAE79DF801009DF8C2
:1019B000001040EA0125A54203DA00203070401EE5
:1019C000DEE7194840684088B5EB600F17DD164A1E
:1019D0001268517C144A526810786B460122FEF757
:1019E0002BFF10B14FF0FF30CAE79DF8000000F068
:1019F000100020B100F01AF86FF00100C0E7E2B269
:101A0000094B1B68D97A084B5B6818783B46FEF790
:101A100013FF10B14FF0FF30B2E795FBF4F0401E1A
:101A200030700020ACE700008800002008B5704846
:101A3000807A10B94FF0FF3008BD002000906C4A4A
:101A40001268D17B6A4A526810786B460122FEF711
:101A50002DFF10B14FF0FF30EEE7654A1268517963
:101A6000634A526810786B460122FEF71FFF10B1DF
:101A70004FF0FF30E0E75E4A126811795C4A526825
:101A800010786B460122FEF711FF10B14FF0FF30C6
:101A9000D2E7574890F82400002853D00C2000903B
:101AA000534A12681179524A526810786B460122E3
:101AB000FEF7FCFE10B14FF0FF30BDE73220FFF71C
:101AC00007FDC02000904A48807A00F0010020B154
:101AD0009DF8000040F020000090454A12681179FE
:101AE000434A526810786B460122FEF7DFFE10B1C0
:101AF0004FF0FF30A0E73E48407C10B1022000903C
:101B000001E0002000903A4A1268D17B384A5268BE
:101B100010786B460122FEF7C9FE10B14FF0FF307E
:101B20008AE700200090324A12685179304A5268A0
:101B300010786B460122FEF7B9FE002855D04FF011
:101B4000FF3079E704200090294A12681179284A69
:101B5000526810786B460122FEF7A8FE10B14FF0D4
:101B6000FF3069E72248807C20B92148807A00F064
:101B7000010010B94020009001E0602000901C4A54
:101B8000126811791A4A526810786B460122FEF7E2
:101B90008DFE10B14FF0FF304EE73220FFF798FC7A
:101BA0001348407C10B10120009001E0002000901B
:101BB0000F4A1268D17B0E4A526810786B46012298
:101BC000FEF774FE10B14FF0FF3035E7084A126897
:101BD0005179074A52681078054B10330122FEF7FD
:101BE00065FE10B14FF0FF3026E7002024E700002B
:101BF000880000202DE9F04106460F4600F0F2FB78
:101C0000041E0D4618BF0120284320F00040C0F1FB
:101C10007F6000F1E040C00F0ED0301C18BF0120E3
:101C2000384320F00040C0F17F6000F1E040C00F79
:101C300004BF0120FEF7F4FA20462946BDE8F081F2
:101C400021F00042A2F16052B2F5801F01F0004382
:101C500028BFD2F17F6C0BD95FEA001C43EAC202B5
:101C600042EB507018BF704728BF20F0010070474A
:101C7000B2F5801FBCBF184670474FEA410C1CF5F7
:101C8000001F02D2084600F0C8BF70B500F04AFB42
:101C900000000089FFF7F6BF4FF00040A0F580007C
:101CA0007047000010B591EA030F48BF83F000436E
:101CB00000F18684841A71EB030C05D2121943EBF0
:101CC0000C03001B61EB0C01DFF824E14FEA115417
:101CD000A4EB135C1EEA430F18BF9EEA445F73D067
:101CE00023EA0E03DCF1200E21EA045143F48013B1
:101CF00032D322FA0CFE10EB0E0023FA0CFE41EB5D
:101D00000E01CCF1200E03FA0EFE10EB0E0051F185
:101D10000001B1F5801FCCF1200E32D201EB04514D
:101D200012FA0EF2BDE8104058BF7047401C38BF91
:101D30005FEA420218BF7047002814BF20F001007C
:101D400041F100014FEA410313F5001F38BF70470E
:101D5000A1F1C04100F034BB012A43EB0302ACF116
:101D6000200CDCF11F0E32BF4FF0000E23FA0CF3F3
:101D700010EB030041EB0451B4EB115FD0D0A1EBA9
:101D8000045101F5801149085FEA300001EB04516C
:101D90000ED350F1000038BF12FA0EFE08D1BDE894
:101DA0001040C9E7401C38BF5FEA4202CAD1C3E70E
:101DB000BDE810404FEA410313F5001F38BF7047DC
:101DC000A1F1C04100F0FCBA9EEA445F08D011EADC
:101DD0005E0FBDE8104004BF01F0004100207047D5
:101DE000BDE8104070B500F09DFA00BF64FBBE3E38
:101DF0000000E0FF02494FF0000000F088BF00BF84
:101E00000000F87F491058BFC1F140415B1058BF36
:101E1000C3F140438B42EFF3008070472DE9C0418E
:101E200030B4DFF8A0C23CEA111418BF3CEA131426
:101E300000F0EC8081EA03051CEA111444EAD57431
:101E400018BF1CEA131500F0C780A4EB05044FF07F
:101E5000004545EAC12145EAC32341EA505143EA1E
:101E6000525304F17F74994204F500344FEAC020C4
:101E70004FEAC22208BF904200F09C804FEA1365EF
:101E80000FF24016765D4FEA134506FB05F7C7F1E2
:101E9000807706FB07F74FEAD737A7FB0368764240
:101EA000C8F58038A7FB06CE38BFA8F1010807FBAC
:101EB00008E64FF0000EA6FB028CE6FB03CEDCF139
:101EC000000CCEF1004E38BFAEF1010EA6FB0C584F
:101ED0004FF000074FF00005E6FB0E87A1FB08C698
:101EE000A0FB07CE16EB0E0645F10005E1FB0765EA
:101EF00015F1E04E7EBFA4F580345FEA46066D41E1
:101F000016F1800745F100054FEA17274FEA0666EC
:101F100047EA0567A6F1DE46B6F1805F4FEA152570
:101F20001FD9384624F0010C05EBC471BCF1FE6FDB
:101F300001EB0C1102D8F0BCBDE8008124425CBF6B
:101F400001F5801E9EEAC47F02D4F0BCBDE800818A
:101F5000244238D4F0BCA1F1C041BDE8004100F0FA
:101F60002FBA4FEAD22242EA43524FEAD323A7FBC9
:101F700002864FEAD02040EA415007FB03661EEA82
:101F80000E0F4FEAD12105FB026658BFA6EB0056A3
:101F9000B6EB00564FEA520E4EEAC37E18EB0E0E19
:101FA00056EB530EBDD518EB02085E417F1C55F170
:101FB0000005B6E74FF480154FF000074FF000061C
:101FC0004FF00008ADE7F0BC4FF0000001F1C04158
:101FD00001F00041BDE8008111EA0C1F0CEA131565
:101FE00000D00CE013EA0C1F00F025804FF0000039
:101FF000F0BC81EA030101F00041BDE80081F0BCC2
:10200000BDE8004181EA030100F0DAB9F0BCBDE8A7
:10201000004170B500F086F9097EFC3E00F007B87B
:1020200081EA03014FF0000001F00041704781EAAE
:10203000030100F0C5B9F0BCBDE800414FF000005D
:1020400021497047FFFDFBF9F7F5F4F2F0EEEDEBF7
:10205000E9E8E6E4E3E1E0DEDDDBDAD8D7D5D4D3A6
:10206000D1D0CFCDCCCBCAC8C7C6C5C4C2C1C0BFF2
:10207000BEBDBCBBBAB9B8B7B6B5B4B3B2B1B0AFF8
:10208000AEADACABAAA9A8A8A7A6A5A4A3A3A2A1DC
:10209000A09F9F9E9D9C9C9B9A9999989797969597
:1020A00095949393929191908F8F8E8E8D8C8C8B33
:1020B0008B8A8989888887878685858484838382BB
:1020C000828181800000FF070000F87F51EA030C45
:1020D00017D41CF5801F58BFBCF5801F00F1068087
:1020E000994218BF704708BF9042704707D711F553
:1020F000801F58BF13F5801F19D499427047894239
:1021000070471CF5801F08D5BCF5801FF7D58B42A2
:1021100018BF704708BF824270474FF4001C1CEB89
:10212000410F38BF1CEB430F01D28B42704770B593
:1021300000F0F8F8922449004FF000514FF080531E
:10214000FFF760BE4FEA41034FEA5353A3F58063A4
:10215000D3F11E03C8BFD3F1210C0CDD4FF00042B8
:1021600042EAC12242EA505232FA03FC8CEAE17C94
:10217000ACEBE1707047102BC4BF0020704703F533
:10218000787CBCF1FF3F04D06FF0004282EA21006E
:10219000704770B500F0C6F849922480002070475F
:1021A000F2E710F0004248BF4042B0FA80F310FA64
:1021B00003F10AD0C3F11D0303F580634FEA4150D8
:1021C00002EB035202EBD12170474FF00000704741
:1021D000DFF848C170B51CEA111E1EBF1CEA1315BA
:1021E0009EEA0C0F95EA0C0F00F06F8081EA030461
:1021F00023EA4C134EEAD47E21EA4C1141F48011BB
:1022000043F48013AE44A1FB024CA0FB0365AEF186
:102210007F7E361955EB0C05A1FB034C4CF10003F6
:10222000A0FB021C16EB0C06654153F100030942AA
:1022300018BF46F0010613F4007F0BD14FEA0331BB
:102240004FEA0530340341EA155140EA16506FF069
:1022500003020AE04FEAC3214FEAC520F40241EA33
:10226000555140EA56506FF0020202EB2E4201EB4C
:10227000025585EACE710AD05FEA440C18BF24F0FB
:10228000004450F1000041F1000120EAD47040F216
:10229000FE7C624500D270BDA84214BF4FF080445E
:1022A0004FF04044002E08BF0024BEF1806FA8BF4D
:1022B000A1F1C041BDE8704080F282804FF0000083
:1022C00001F1C04101F0004170479EEA0C0F0CEA99
:1022D000131518BF95EA0C0F06D04FF0000081EAE5
:1022E000030E0EF0004170BD00F01CF88900013EA5
:1022F00000F007B800F009B84FEA430C5FEA5C5CF5
:1023000008D081EA030100F05BB84FEA410C5FEAB4
:102310005C5CF6D14FF00000014970470000FF07F8
:102320000000F87F0EF1020E2EF0030E5EF8046B33
:10233000364205D4012A43EB030515F5001F12D8D8
:10234000012841EB010C1CF5001F0CD80ED14FEAFF
:10235000D17C15F5001F0CEB4C0C0CF1020C08BFE6
:102360004CEBD37C04E04FF0080C01E04FEAD37C47
:102370000CEB4C0526FA05F606F00706B6F1040C40
:1023800006D20EEB860CBDE870404CF0010C6047A5
:10239000DFE80CF0090B02024FF000414FF00000A3
:1023A000A1F5002170BD19461046012851EB01042A
:1023B00018BFD4F5001484BF002001F0004170BDA7
:1023C0000808A0F500114FEA3101704791EA030FA8
:1023D00010B581F000413FF56DAC83F0004300F093
:1023E000EFB800002DE9F04101F5801CBCF5001F9D
:1023F000C0F2C3804FEA115C21EA0C510CF1FD0CD4
:1024000041F480115FEA5C0C0CF5C07C01D3400004
:1024100049413DA4890241EA905187028E0E0A0C7F
:10242000A45D04FB04F602FB06F6C6F14046A4FBDD
:102430000662F60D46EA422606FB06F4A4FB0123DB
:102440005242C3F1404338BF5B1EA6FB0242002448
:10245000E6FB0324D20B42EA4446A6FB0623A1FB7B
:1024600002E2A3FB07E4A4184FF0000252F10002BD
:10247000E3FB01426442C2F1404E38BFAEF1010EAF
:10248000A6FB04234FF00002E6FB0E32A2FB03463C
:102490004FF00004B61954F10004E2FB0264A1FB02
:1024A00006E6A4FB07E816EB08064FF0000858F113
:1024B0000008E4FB01687642C8F1405838BFA8F133
:1024C0000108A2FB06E4A3FB08E52D194FF0000468
:1024D00054F10004E2FB0854A1FB05E6A7FB04E865
:1024E00018EB06084FF0000656F10006E1FB0486E3
:1024F00018F1200556F10006A809A8F11B08B1093A
:1025000008F03F08B8F10A0F40EA86601CD901EBD9
:102510000C51BDE8F08100BFFCF5EEE8E2DDD8D358
:10252000CFCBC7C3C0BDB9B6B4B1AEACA9A7A5A344
:10253000A19F9D9B9A9896959392908F8D8C8B8955
:102540008887868584838281A0FB006800FB01F276
:1025500008EB4208B8EB872807D5341858EB01047C
:10256000D5D5401C51F10001D1E7341A78EB0104B4
:10257000CDD4401E71F10001C9E75FEA4C0C5FEA5F
:102580009C5C0DD105D34FF0000001F00041BDE887
:10259000F081BDE8F04170B5FFF7C4FE6DDBFFBE12
:1025A000BDE8F0414FF00000004970470000F87F9F
:1025B00010B591EA030F48BF83F000433FF57AABB3
:1025C000841A71EB030C07D212198CF0004C43EB08
:1025D0000C03001B61EB0C01DFF8A4E14FEA11547E
:1025E000A4EB135C1EEA430F18BF9EEA445F00F0A1
:1025F000B08023EA6E03524221EA0451C3EB6E031A
:1026000038BF5B1EDCF1200E25D322FA0CFE10EB46
:102610000E0043FA0CFE41EB0E01CCF1200E03FA42
:102620000EFE10EB0E0051F10001CCF1200E29D46A
:1026300012FA0EF201EB0451BDE8104058BF70478A
:10264000401C1CBFB2F1004F704700280CBF491C52
:1026500020F00100704712EB020E43EB030218BF9B
:102660004FF0010E4EEA4202ACF1200CDCF11E0EDE
:1026700054D943FA0CFE10EB0E0051F1FF31CCF1AE
:102680001E0ED5D50EF1010E12FA0EFE404141EBA1
:10269000010101EB445C5FEA5C5C10D910EBDE7079
:1026A00001EB045138BFBEF1004FBDE8104018BF28
:1026B000704700280CBF491C20F00100704730D241
:1026C0004FEAD42C11F5001124F400641BD0B1FAA8
:1026D00081F20B3AA41AA41ED2F12003914030FAE1
:1026E00003F31943904001EBCC71002C01EB045132
:1026F000BDE81040A8BF704701F1C0414FF0000095
:1027000001F000417047B0FA80F310FA03F100D1F4
:1027100010BDE41A173C4805C90AE4E701EB04516F
:1027200010BD491001EB0451BDE810404FEA3000E4
:1027300002E04FF0000170474A0008BF0042F8D0A5
:10274000B2F5001F28BF704701F000414FF00000B4
:1027500070479EEA445F07D011EA5E0FBDE8104063
:1027600004BF002100207047BDE8104070B5FFF79E
:10277000D9FD00BF40DFF63E83F0004110467047B0
:102780000000E0FF43004FEAD30C4FEA3C0C43400B
:102790001FBF40070CF1605113F0FE4F70471CF053
:1027A000006F03D100200CF0004170470CF0004393
:1027B00043EA507010B540EACC0000F0E8F900BFE1
:1027C000000000924FEA0001FFF7FABD4FF0004110
:1027D0004FF00000A1F500217047000090EA010FC2
:1027E00048BF81F0004100F12482421A3CBF801AA8
:1027F00089184FEAD0524FF07F4C1CEA410FA2EBF0
:10280000D15318BF9CEA026F00F03B804FF0004CA0
:102810004CEA00204CEA012121FA03FC10EB0C0CDD
:102820001ED202F1FF325FEA1C2040EBC25038BFDB
:1028300070471CF07F0F4FEA400C18BFBCF17F4F70
:1028400038BF7047C3F12003994008BF20F0010052
:10285000BCF17F4F38BF7047A0F1C04000F0DDB938
:102860004FEA3C00000A40EBC25028BF1CF0FF0FAB
:102870004FEA400CE6D018BFBCF17F4F38BF70471D
:10288000EAE79CEA026F05D010EA5C0F08BF00F08F
:102890000040704710B500F07AF900BF64FBBE3EFF
:1028A0004FF47F0C1CEAD0121EBF1CEAD11392EA2F
:1028B0000C0F93EA0C0F00F0858090EA010F48BFDF
:1028C00042F4807240F4000C41F400002CF07F418F
:1028D00020F07F4000B58142A2EB03020FF2081CFA
:1028E000ACEB504EC0F100009EF800E04FEA4E0EF7
:1028F00000FB0EFC38BF49004FEA2C1C02F5FA021F
:102900000CFB0EF34FEACE1E4FEA112C4FEAC12109
:102910000EEB635E42EB22420EFB0CFC4FEA1C53B3
:1029200000FB03114FEA112C4FEA01310EFB0CFCA6
:102930004FEADC4C00FB0C11C14228BF09184CEBDC
:1029400003335DF804EB10EB410143EBC250B2F5E9
:102950007C0F38BF704729D512F0F00F1CBF00F173
:10296000C04000F0004070470081828384858687E4
:1029700088898B8C8D8E8F919293959697999A9C3E
:102980009D9FA0A2A3A5A7A8AAACAEB0B2B3B5B7AD
:10299000B9BCBEC0C2C5C7C9CCCED1D4D7D9DCDF83
:1029A000E2E6E9ECF0F3F7FAFE0000004FEA400C33
:1029B0000CF1807CBCF17E4F28BF7047B0F1C04065
:1029C00000F02BB990EA010F0CEAD11348BF42F492
:1029D0008072624538BF634507D213F47F0F16D06B
:1029E00080EA010000F00040704710B500F0CFF819
:1029F000097EFC3E00F005B880EA010000F00040CE
:102A0000704780EA010000F0004000F006B912F4BF
:102A10007F0F04BF0248704780EA010000F0FDB854
:102A20000000C07F41000B0ED3F19E0208D950F484
:102A300000034FEA032323FA02F048BF40427047E5
:102A400010B500F0A4F800BF499224800020704720
:102A50006FF0004282EA20007047000010F0004151
:102A600048BF4042B0FA80F310FA03F2C3F19D036D
:102A70000BD051EAC35101EB1220530638BF704707
:102A800000F1010008BF20F0010070474FF47F0CF7
:102A90001CEAD0121EBF1CEAD11392EA0C0F93EA73
:102AA0000C0F00F0478090EA010F48BF42F480729B
:102AB0004FF0004C4CEA00204CEA012102EB0302EB
:102AC000A0FB0113A2F50002002918BF43F0010387
:102AD0005B0028BF4FEA330342EB22425FEA132C2C
:102AE0004CEBC2502EBFBCEB436FB2F57C0F70476E
:102AF0004FEA036CBCF1004F08BF20F00100B2F5B3
:102B00007C0F38BF70470BD582F0FF0212F5803F73
:102B1000C8BF704700F1C040D8BF00F00040704708
:102B200000F5000C5FEA4C0C48BF7047B0F1C040A4
:102B300000F073B890EA010F0CEAD11348BF42F4D9
:102B40008072624538BF634504D280EA010000F01C
:102B50000040704710B500F01AF800BF8900013E30
:102B600000F007B800F009B85FEA410C5FEA1C6C9E
:102B700008D080EA010000F050B85FEA400C5FEA3C
:102B80001C6CF6D14FF00040A0F5800070470EF1AC
:102B9000020E2EF0030E5EF8044B244204D44FEADA
:102BA0004102B2F17F4F11D84FEA4003B3F17F4F9A
:102BB0000CD80ED14FEAD07CB2F17F4F0CEB4C0C0D
:102BC0000CF1020C08BF4CEBD17C04E04FF0080C78
:102BD00001E04FEAD17C0CEB4C0324FA03F404F03F
:102BE0000704B4F1040C06D20EEB840CBDE81040CF
:102BF0004CF0010C6047DFE80CF0070802024FF0D0
:102C00000040A0F5800010BD0846420018BFD2F178
:102C1000807288BF00F0004010BDFF2141EAD05013
:102C2000C005704790EA010F48BF81F000413FF5B1
:102C3000DCAD421A04D882F00042A0EB020011443D
:102C40004FEAD0524FF07F4C1CEA410FA2EBD15318
:102C500018BF9CEA026F4AD04FF0004C4CEA0020AB
:102C60004CEA012121FA03FCB0EB0C0C0FD412F05A
:102C7000FE0F36D05FEA4C001DD5001240EBC2506B
:102C800038BF70471CF03F0F18BF70470BE0A2F130
:102C900001025FEA1C2040EBC25038BF70471CF0B5
:102CA0007F0F18BF7047C3F12003994014BF401E27
:102CB00020F00100704780084FEA122308BF7047D8
:102CC000B0FA80FCA2EB0C02CCF1280C60FA0CF0FC
:102CD00093EA122F04BF00EBC25070474FEAC37053
:102CE0007047130A5FEADC1008BF7047F6E79CEAFA
:102CF000026F04D010EA5C0F08BF0020704710B5C7
:102D0000FFF745FF40DFF63E81F0004070470CF0D2
:102D10000F03092B08BF082000F059800A2B0BD0A5
:102D2000082B18BF704708BF1CF0400F0AD04FF0A7
:102D300000004FF0000170471CF0400F18BF4FF02B
:102D4000004070471CF0100F08D020F0704300F0D6
:102D50007F4242EAD3014FEA4370704700F060407F
:102D600021F07F4242EA000201F07F4040EA7270A7
:102D700070474FF0FF0C4CF4E06C1CEA11531CBF81
:102D80009CEA030C9445C2BFDA4201EB0251704742
:102D9000002B0DD0BCF1000F0FD0002A01F0004134
:102DA000A4BF41F0E04141F07F614FF00000704767
:102DB00001F000414FF00000704750EA01334FF03E
:102DC0009B0C18BF4CF0806C7FF414A870471CF467
:102DD000801F11D01CF4E02F03D06FEACC314900E2
:102DE00070474FF04050EFF3008222F0704242EA09
:102DF000000282F3008870474FF000007047000027
:102E000075191A0C6A231B1C1F207274433B41382E
:102E1000393A6B6C376F06246D6E700068000004E1
:102E200076005401F7FD0001830000000008000057
:102E30000001001832000500000020410000D242CD
:102E4000295C0F3E9A99993E3333733F295C0F3EBC
:102E5000555555555555C53F7D6FEB0312D6D4BF1B
:102E60005544880E55C1C93F3B8F68B52882A4BF21
:102E700088B20175E0EF493F09F7FD0DE13D023FE2
:102E80004B2D8A1C273A03C0C88A599CE52A00406A
:102E900059018D1B6C06E6BF82922EB1C5B8B33FB7
:102EA0004FBB610567ACDD3F182D4454FB21E93F62
:102EB0009BF681D20B73EF3F182D4454FB21F93F51
:102EC000E2652F227F2B7A3C075C143326A6813CD7
:102ED000BDCBF07A8807703C075C143326A6913C82
:102EE000C4EB98999999C9BF711623FEC671BCBFEE
:102EF0006D9A74AFF2B0B3BF9AFDDE522DDEADBF56
:102F00002F6C6A2C44B4A2BF0D5555555555D53F6D
:102F1000FF8300922449C23F6E204CC5CD45B73F88
:102F2000513DD0A0660DB13FEB0D76244B7BA93F00
:102F300011DA22E33AAD903F0000000000000000EB
:102F4000602F000800000020C00000006C01000895
:102F500020300008C0000020380700008801000869
:102F60000000000000000000000000000000000061
:102F70000000000000000000000000000000000051
:102F800000000000201C0000E0E3FFFF0000000044
:102F90000000000000A24A04000000000000000041
:102FA00001020304060708090000000000000000F9
:102FB0000000000000000000000000000000000011
:102FC0000000000000000000000000000000000001
:102FD00000000000000000000000000000000000F1
:102FE0000000000000000000002E00081C2E000859
:102FF00000000000000000000000000000000000D1
:1030000000000000000000000000000000000000C0
:10301000282E00080100000001000000010000004F
:0400000508000131BD
:00000001FF
