:020000040800F2
:1000000010080020D501000821140008350D000853
:10001000F1130008A707000893250008000000005E
:10002000000000000000000000000000D11B0008DC
:10003000AB07000800000000B91A0008E51C000822
:10004000EF010008EF010008EF010008EF010008D0
:10005000EF010008EF010008EF010008EF010008C0
:10006000EF010008EF010008EF010008EF010008B0
:10007000EF010008EF010008EF010008EF010008A0
:10008000EF010008EF010008EF010008EF01000890
:10009000EF010008EF010008EF010008AD070008BC
:1000A000EF010008EF010008EF010008EF01000870
:1000B000EF010008EF010008EF010008EF01000860
:1000C000EF010008EF010008EF010008EF01000850
:1000D000EF01000871230008EF010008EF0100089C
:1000E000EF010008EF010008EF010008EF01000830
:1000F000EF010008EF010008EF010008EF01000820
:10010000EF010008EF010008EF010008EF0100080F
:10011000EF010008EF010008EF010008EF010008FF
:10012000EF010008EF010008EF010008EF010008EF
:1001300000F002F800F03FF80AA090E8000C8244BA
:100140008344AAF10107DA4501D100F034F8AFF297
:10015000090EBAE80F0013F0010F18BFFB1A43F0A5
:1001600001031847547F0000747F0000103A24BF39
:1001700078C878C1FAD8520724BF30C830C144BF0C
:1001800004680C607047000000230024002500264E
:10019000103A28BF78C1FBD8520728BF30C148BFEA
:1001A0000B607047642900F06780002070471FB51E
:1001B0001FBD10B510BD00F0CBFA1146FFF7F7FFD9
:1001C00004F044F800F0E9FA03B4FFF7F2FF03BCCF
:1001D00002F0FFFA0948804709480047FEE7FEE7BA
:1001E000FEE7FEE7FEE7FEE7FEE7FEE7FEE7FEE7E7
:1001F00004480549054A064B70470000E91C000801
:100200003101000810020020100800201004002016
:1002100010040020704710B54C1084EA530404D534
:100220004042C1F1000138BF491E1B4204D5524271
:10023000C3F1000338BF5B1E00F02EF914F0804FAD
:1002400004D04042C1F1000138BF491E14F0004FF4
:1002500004D05242C3F1000338BF5B1E10BD000042
:100260000FB4044910B503AA029800F0F1F910BCCC
:100270005DF814FB5C0000202DE9F04106460024E7
:1002800010687529314616A510D0AFF300800028FC
:1002900002DA404213A507E031688A0701D512A5AA
:1002A00002E0490704D511A5012401E0AFF3008065
:1002B00000210A2206F1240709E0B0FBF2FCB0FBA2
:1002C000F2F302FB1C00303078541846491C002819
:1002D000F3D123462A463046BDE8F04100F05EB92E
:1002E000000000002D0000002B0000002000000096
:1002F0002DE9F05F894604464FF0000ADFF824B18B
:10030000FB44C0F820A02046E168884700287DD043
:10031000252806D0D4E901219047206A401C20629C
:10032000F1E700255F462046E16888472028064619
:1003300007DB312E05D2B81910F8200C08B105439F
:10034000F1E7A80701D525F00405C4F81CA0002793
:10035000C4F818A02A2E09D0304602F033FA38B378
:1003600004EB8708303EC8F8186019E059F8041B00
:10037000204604EB87029161E1688847012F064619
:1003800018D1E069002820DA25F020051DE0D8F812
:10039000180000EB800006EB40003038C8F8180069
:1003A0002046E1688847064602F00CFA0028EED1A4
:1003B000012F0AD02E2E08D12046E16888477F1CE5
:1003C0000646022F45F02005C4DBA069002803DAA9
:1003D000404245F00105A061E80701D025F0100575
:1003E000A6B1A6F14100192802D8203645F40065CF
:1003F0004A463146204625604D46FFF7D3FE60B1A0
:10040000012807D0ED1D25F0070000E007E000F10E
:10041000080978E705F1040975E730467AE7206AAC
:10042000BDE8F09F5E7C000040EA010310B59B0729
:100430000FD1042A0DD310C808C9121F9C42F8D04E
:1004400020BA19BA884201D9012010BD4FF0FF30FF
:1004500010BD1AB1D30703D0521C07E0002010BD15
:1004600010F8013B11F8014B1B1B07D110F8013BA1
:1004700011F8014B1B1B01D1921EF1D1184610BD82
:1004800002F0FF0343EA032242EA024200F0F4B81A
:10049000704770477047704753EA020C00F069805C
:1004A0002DE9F04B4FF00006002B1FBFB3FA83F588
:1004B00003FA05F424FA05F65E4012BF1643B2FAB9
:1004C00082F502FA05F4C5F120051EBF22FA05FCEB
:1004D00044EA0C04203556EA044C4FEA144418BF91
:1004E000641C4FF000084FF00009904271EB030CC0
:1004F00039D3002919BFB1FA81F701FA07F6B0FA2A
:1005000080F700FA07F6C7F120071EBF20FA07FCA4
:1005100046EA0C062037B6FBF4FCA7EB0507103FB4
:1005200007F01F0BCBF120060CFA0BFB2CFA06F69A
:1005300044BFB3460026202FA4BF5E464FF0000BF9
:100540005BEA060C08BF4FF0010B19EB0B09ABFB84
:10055000027C48EB0608C01B06FB02CC0BFB03CC5D
:1005600071EB0C01C1E70B46024641464846BDE827
:10057000F08B13B54FF000004FF00001AFF3008097
:10058000BDE81C40704710B500F096F8006810BD3B
:1005900010B5044600F090F8046010BD2DE9F04756
:1005A0000D4699469246044600F1240801688806E3
:1005B00004D5E06921F01001216000E00120A8428B
:1005C00001DD471B00E00027A1697A1902EB090051
:1005D000081AA0612078C00602D42046AFF300803C
:1005E000002608E0D4E901211AF806009047206AA5
:1005F000401C761C20624E45F4DB2078C0060AD5EC
:100600002046AFF3008006E0D4E901213020904776
:10061000206A401C2062381EA7F10107F4DC07E0C5
:10062000D4E9012118F805009047206A401C206297
:10063000281EA5F10105F3DC2046AFF300802078E9
:10064000000602D50220BDE8F0870120FBE700008C
:10065000074B70B50D467B4400F037F8044628463A
:1006600000F046F810B14FF0FF3070BD204670BD6D
:100670002B3500004FF000020429C0F0128010F06A
:10068000030C00F03B80CCF1040CBCF1020F18BF4E
:1006900000F8012BA8BF20F8022BA1EB0C0100F001
:1006A0002DB85FEAC17C24BF00F8012B00F8012BB4
:1006B00048BF00F8012B704700487047B001002088
:1006C00001694A1C02610878704700B58FB0CDE916
:1006D00001310021059105497944CDE90310114606
:1006E0006846FFF705FE0FB000BD0000E5FFFFFF05
:1006F000007B00F0800070474FF0000200B5134609
:1007000094469646203922BFA0E80C50A0E80C5031
:10071000B1F12001BFF4F7AF090728BFA0E80C50E2
:1007200048BF0CC05DF804EB890028BF40F8042BDB
:1007300008BF704748BF20F8022B11F0804F18BF48
:1007400000F8012B7047000000487047B0010020FE
:100750007546FFF7F9FFAE4605006946534620F09F
:100760000700854618B020B5FFF742FDBDE82040E0
:100770004FF000064FF000074FF000084FF0000B5D
:1007800021F00701AC46ACE8C009ACE8C009ACE810
:10079000C009ACE8C0098D4670470446AFF300803D
:1007A0002046FFF711FD00BFFEE770472DE9F0413D
:1007B000202000F0A1F801286DD1384800680028F9
:1007C00069D1202000F092F8022000F08FFA404218
:1007D00033490860042000F089FA32490860324A3F
:1007E0003249334803F0ACFD324A3349334800F014
:1007F00061FB334A3349344800F034FB2E48B0F9EA
:10080000000005F033FF04462246294801682F48BE
:10081000006801F03BFF2E4908602248016820482B
:10082000006801F0B9FE2B4908602248B0F90000C9
:1008300001F086FD284908602648006805F016FF8B
:10084000074626480168384605F070FF05462048EF
:10085000006805F00BFF0646294606F065F80446D9
:1008600005F0C8FE1E490860084600681A49096874
:10087000401A1C4908601A4800681749096808446A
:1008800019490860174800F057FA174801681548D9
:10089000006800F077FABDE8F08100009481214201
:1008A000180000201C000020080000200400002088
:1008B00000000020100000200E0000200C0000208E
:1008C0001600002014000020120000206400002008
:1008D0007C000020800000208400002068000020B0
:1008E00088000020280000202C000020014908601A
:1008F0007047000014040140014600200022074B0D
:100900001B6803EA0102054B14331B680B4013B14B
:100910000AB1012000E000207047000000040140FF
:10092000002123498279002A3AD00A4612680368D6
:100930009A430B461A600A1D126803689A430B1DFE
:100940001A60027911440A6803681A430A60184A57
:100950000832126803689A43154B08331A601A1D4F
:10096000126803689A43124B0C331A604279102ABA
:100970000ED11A1F126803681A430D4B08331A6010
:100980001A1D126803681A43094B0C331A600DE0F4
:100990000749427911440A6803681A430A6005E06E
:1009A000027911440A6803689A430A60704700009C
:1009B0000004014000B587B00121042001F08EF849
:1009C0000121084601F07AF80320ADF81800042050
:1009D0008DF81B0006A91D4800F0B0F803A801F02F
:1009E000A5FC4FF6FF70ADF810000020ADF80C002C
:1009F00003A94FF0804001F047FC684601F066FB18
:100A00000020ADF800000A20ADF808006946400754
:100A100001F006FB0420ADF800000A20ADF8080044
:100A20006946400701F0FCFA00231A4603214FF003
:100A3000804001F0D0FA00214FF0804001F0F6FB39
:100A40000121880701F0ACFA07B000BD00080140A1
:100A500000B587B00121082001F040F801210420F1
:100A600001F02CF8C020ADF8180004208DF81B0010
:100A700006A91C4800F062F803A801F057FC4FF6E5
:100A8000FF70ADF810000020ADF80C0003A9164867
:100A900001F0FAFB684601F019FB0020ADF80000F8
:100AA0000A20ADF8080069460F4801F0B9FA0420A1
:100AB000ADF800000A20ADF8080069460A4801F0C8
:100AC000AFFA00231A460321074801F084FA0021F7
:100AD000054801F0ABFB0121034801F061FA07B0C2
:100AE00000BD0000000C0140000800400146002944
:100AF00001DB084670474842FCE7000030B50022A1
:100B00008B071C0F0F2303FA04F20B4B8C1053F8C6
:100B100024309343084C8D1044F8253023468C1024
:100B200053F824308C07240F00FA04F42343024CBA
:100B30008D1044F8253030BD080001402DE9F0410A
:100B4000024600250026002000230024002791F8FB
:100B500003C00CF00F0591F803C00CF0100CBCF1B1
:100B6000000F03D091F802C04CEA050591F800C0CF
:100B7000BCF1000F31D0146800202BE04FF0010CC5
:100B80000CFA00F3B1F800C00CEA03069E4220D133
:100B900083004FF00F0C0CFA03F7BC4305FA03FC7B
:100BA0004CEA040491F803C0BCF1280F06D14FF0C1
:100BB000010C0CFA00FCC2F814C00AE091F803C062
:100BC000BCF1480F05D14FF0010C0CFA00FCC2F843
:100BD00010C0401C0828D1D31460B1F800C0BCF18B
:100BE000FF0F34DD546800202EE000F1080C4FF0B8
:100BF000010808FA0CF3B1F800C00CEA03069E42A3
:100C000021D183004FF00F0C0CFA03F7BC4305FA17
:100C100003FC4CEA040491F803C0BCF1280F05D191
:100C200000F1080C08FA0CF8C2F8148091F803C01F
:100C3000BCF1480F07D100F1080C4FF0010808FA89
:100C40000CF8C2F81080401C0828CED35460BDE8D0
:100C5000F0810000F0B50A460023002400210025A1
:100C600000F00046B6F1004F02D11D4EF16901E0DF
:100C70001B4E7168C0F3034583B200F44016B6F50D
:100C8000401F08D121F07061154E766826F070661D
:100C9000134F7E6012E000F48016B6F5801F06D177
:100CA000032606FA05F4A14341F0706106E0460D03
:100CB000360103FA06F6B14341F0706122B1460DE8
:100CC000360103FA06F6314300F00046B6F1004F54
:100CD00002D1034EF16101E0014E7160F0BD0000F0
:100CE00000000140416170470161704770B50446E2
:100CF0000025022C02D0042C14D10AE04FF08040D1
:100D000001F08AF905B200214FF0804001F08EFA1F
:100D10000AE0074801F080F905B20021044801F01B
:100D200085FA01E0002500BF00BF284670BD000025
:100D30000008004000BFFEE7104B02681B689A42A3
:100D400002DB0E4A126802600D4B02681B689A4271
:100D500002DC0B4A12680260084B0A681B689A4260
:100D600002DB064A12680A60054B0A681B689A4251
:100D700002DC034A12680A6070470000200000206D
:100D80002400002070B505460C46002D07DB01202D
:100D90001849086000201849C1F8BC0106E000208D
:100DA0001449086001201449C1F8BC012846FFF726
:100DB0009DFE86B23146114801F033FA002C08DB63
:100DC00001200C49091F086000200B49C1F8B0013F
:100DD00007E000200749091F086001200649C1F803
:100DE000B0012046FFF782FE86B23146034801F08B
:100DF0001AFA70BDB881214200802142002C0140C6
:100E00001FB50121092000F069FE2020ADF80C007B
:100E100048208DF80F0003A91148FFF78FFE052128
:100E20000120FFF76BFE2020019001208DF80A00C1
:100E300000208DF808000C208DF8090001A8FFF7AC
:100E40006FFD17208DF8000001208DF803000020B1
:100E50008DF801008DF80200684600F0E3FA1FBD2E
:100E6000000C01402DE9FC4104460D4616466B4638
:100E700006223B21682000F0E5F90746BFB99DF83E
:100E800001009DF8001040EA012000B220809DF88A
:100E900003009DF8021040EA012000B228809DF86E
:100EA00005009DF8041040EA012000B23080384669
:100EB000BDE8FC812DE9FC4104460D4616466B4613
:100EC00006224321682000F0BDF90746BFB99DF80E
:100ED00001009DF8001040EA012000B220809DF83A
:100EE00003009DF8021040EA012000B228809DF81E
:100EF00005009DF8041040EA012000B23080384619
:100F0000BDE8FC8110B500200E4908600E4800685D
:100F100020F470400C4908600846006840F44050D6
:100F2000086000200949C1F88C0100F011F8012087
:100F30000449086000F00CF800200449C1F8900151
:100F400010BD000090812142000C01400080214230
:100F500010B5022002F016F810BD000008B50121FE
:100F6000082000F0BBFD1820ADF8000010208DF81F
:100F7000030003208DF8020069460248FFF7DEFDFA
:100F800008BD0000000C014010B500200E490860AB
:100F90000E48006820F470400C490860084600685C
:100FA00040F44050086001200949C1F88C01FFF766
:100FB000CFFF012004490860FFF7CAFF0020044961
:100FC000C1F8900110BD000090812142000C014049
:100FD0000080214270B5054600241648006820F4C0
:100FE0007040144908600846006840F400400860FA
:100FF000002614E0002010490860FFF7A9FF012037
:101000000E49C1F890016006040E0B488438006850
:1010100008B1601CC4B2FFF79BFF701CC6B2082E5B
:10102000E8DB15B9FFF7B0FF01E0FFF76BFF2046E3
:1010300070BD0000000C01409081214200802142DF
:1010400070B504461248006820F4704010490860EA
:101050000846006840F44050086000200D490860D0
:10106000002512E0E0090B49091F08606006040E24
:1010700001200949C1F89001FFF76AFF00200549E6
:101080000860FFF765FF681CC5B2082DEADB70BD7C
:10109000000C0140908121420080214210B50E4891
:1010A000006820F470400C4908600846006840F46D
:1010B000405008600120094908600949C1F89001C1
:1010C000FFF746FF002005490860FFF741FF0020B9
:1010D0000349C1F8900110BD000C01408C812142F0
:1010E0000080214210B50E48006820F470400C4981
:1010F00008600846006840F4405008600020094934
:1011000008600949C1F88C01FFF722FF0120054959
:1011100008600549C1F88C01FFF71AFF10BD0000F7
:10112000000C0140908121420080214210B5002432
:101130001448006820F470401249086008460068AE
:1011400040F40040086001200F490860FFF700FFED
:1011500001200E49C1F89001FFF7FAFE07E0601C7C
:10116000C4B2FA2C03DDFFF7BDFF012010BD064815
:10117000803800680028F2D10349091D086000BFCB
:10118000F4E70000000C01408C81214200802142E4
:1011900010B5FFF7E3FE80216B2000F0D7F8642044
:1011A00001F0CAFE00216B2000F0D0F8032000F00F
:1011B0008BF8002000F080F8C82000F0AAF8002189
:1011C000382000F0C3F800216A2000F0BFF80021A9
:1011D000232000F0BBF88021372000F0B7F87520FD
:1011E00000F013F80446682C0BD101216B2000F0AD
:1011F000ADF800216C2000F0A9F8642000F089F817
:1012000001E0012010BD0020FCE770B50446FFF7A7
:1012100045FFD020FFF714FFFFF788FF2046FFF7B8
:101220000FFFFFF783FFFFF739FFD120FFF708FF1C
:10123000FFF77CFF0020FFF7CDFE0546FFF752FFCA
:10124000284670BD2DE9F04106460F4614461D465E
:10125000FFF724FF002141EA4601C8B2FFF7F0FE84
:10126000FFF764FF20B1FFF73DFF0120BDE8F081EB
:101270003846FFF7E5FEFFF759FFFFF70FFF0121A3
:1012800001EB4601C8B2FFF7DBFEFFF74FFF0DE0B1
:10129000012C04D10020FFF79DFE287003E00120FF
:1012A000FFF798FE2870601EC4B26D1C002CEFD1B1
:1012B000FFF718FF0020D9E710B50446E006010E3D
:1012C0001C2000F043F810BD10B50446E006010EE6
:1012D0001B2000F03BF810BD70B504460025BC2C67
:1012E00001DB012510E0622C01DB02250CE02A2C39
:1012F00001DB032508E0142C01DB042504E00A2CA3
:1013000001DB052500E0062529461A2000F01EF81D
:1013100070BD70B50446B4F57A7F01DD4FF47A7480
:10132000042C00DA04244FF47A7090FBF4F0401E91
:10133000C5B22946192000F009F80546264604EBF7
:10134000D671C1F34F00FFF7C7FF70BD70B50546FA
:101350000C46FFF7A3FED020FFF772FEFFF7E6FE74
:1013600018B1FFF7BFFE012070BD2846FFF768FEE9
:10137000FFF7DCFE2046FFF763FEFFF7D7FE18B14C
:10138000FFF7B0FE0120EFE7FFF7ACFE0020EBE730
:101390002DE9F04105460E4617469846FFF77EFEBA
:1013A000002141EA4501C8B2FFF74AFEFFF7BEFE41
:1013B00020B1FFF797FE0120BDE8F0813046FFF72E
:1013C0003FFEFFF7B3FE00240CE018F80400FFF71F
:1013D00037FEFFF7ABFE18B1FFF784FE0120EBE705
:1013E000601CC4B2BC42F0DBFFF77CFE0020E3E7E8
:1013F00000BFFEE708B50121082000F06FFB4FF4A5
:101400007040ADF8000010208DF8030003208DF827
:10141000020069460148FFF791FB08BD000C01403E
:101420007047000070B5002100230F22C47804B378
:10143000154C246804F4E064C4F5E064210AC1F1A9
:101440000403CA40447804FA03F184781440214329
:1014500009010E4C0678A155047804F01F050124FB
:10146000AC4005786D11AD0005F1E025C5F80041EF
:1014700009E0047804F01F050124AC40044D06780F
:10148000761145F8264070BD0CED00E000E400E068
:1014900080E100E002490143024A11607047000008
:1014A0000000FA050CED00E070B5002418E004F12E
:1014B000B000002100F045FA0021084600F041FA92
:1014C0000021102000F03DFA002505E00121002058
:1014D00000F037FA681CC5B2802DF7DB601CC4B27F
:1014E000082CE4DB70BD00002DE9FF5F86B01446D8
:1014F0001D464FF0010A00200390049005904FF024
:101500000109002600BF83460022134620462946D3
:1015100004F0CAFB09D285F00040CDE90040204626
:10152000019904F04DFB064604E02046294604F0EC
:1015300047FB0646304604F0A0FB22462B46CDE989
:10154000000104F0EBFC074688460022554B384664
:10155000414604F0E5FBCDE9000104F061FB834660
:1015600007E009EB89004FEA40090AF1010000F0A9
:10157000FF0A0A2096FBF0F090FBF9F00028F0D16A
:1015800042F2107096FBF0F00A2190FBF1F201FBA1
:101590001200C0B28DF80C004FF47A7096FBF0F098
:1015A00090FBF1F201FB1200C0B28DF80D00642037
:1015B00096FBF0F090FBF1F201FB1200C0B28DF847
:1015C0000E000A2096FBF0F090FBF1F201FB1200F6
:1015D000C0B28DF80F000A2096FBF0F100FB1160FD
:1015E000C0B28DF810002E208DF811004FF47A70E3
:1015F000BBFBF0F00A21B0FBF1F201FB12008DF809
:1016000012006420BBFBF0F0B0FBF1F201FB120012
:101610008DF813000A20BBFBF0F0B0FBF1F201FBE8
:1016200012008DF814000A20BBFBF0F100FB11B092
:101630008DF8150000211498801D03AA11548946C5
:1016400008E003A810F80900303003A901F80900E8
:1016500009F10109B9F10A0FF3DB00221346204614
:10166000294604F021FB08D20AF1010000F0FF0A2C
:101670002D20CAF1050103AA50542E208DF8110027
:1016800000211498801D03AA1154CAF1050003A972
:1016900042180C23DDE9061000F038F90AB0BDE865
:1016A000F09F00000088C34010B54FF480710948D6
:1016B000FFF71AFB4FF400710648FFF715FB4FF4D4
:1016C00000710448FFF70EFB4FF480710148FFF7EB
:1016D00009FB10BD000C014010B54FF480710748A4
:1016E000FFF702FB4FF400710448FFF7FBFA4FF4D9
:1016F00000710248FFF7F8FA10BD0000000C01402D
:1017000010B54FF480710448FFF7EEFA4FF4807182
:101710000148FFF7E7FA10BD000C014008B50121B0
:10172000092000F0DBF901214348FFF793FA4FF459
:101730004070ADF8000010208DF8030003208DF8F4
:10174000020069463D48FFF7F9F94FF440713B4804
:10175000FFF7CAFA4FF4487001F0EEFB0021AE200B
:1017600000F0EFF80021084600F0EBF8002110200F
:1017700000F0E7F80021402000F0E3F80021B0205D
:1017800000F0DFF80021812000F0DBF80021FF20CD
:1017900000F0D7F80021A12000F0D3F80021A62006
:1017A00000F0CFF80021A82000F0CBF800213F2066
:1017B00000F0C7F80021C82000F0C3F80021D320B2
:1017C00000F0BFF80021084600F0BBF80021D5204A
:1017D00000F0B7F80021802000F0B3F80021D820F5
:1017E00000F0AFF80021052000F0ABF80021D9206F
:1017F00000F0A7F80021F12000F0A3F80021DA2082
:1018000000F09FF80021122000F09BF80021DB205F
:1018100000F097F80021302000F093F800218D208F
:1018200000F08FF80021142000F08BF80021AF2089
:1018300000F087F808BD000000023000000C0140F5
:1018400070B504460D4605F1B000002100F079F8AE
:10185000102141EA1410002100F073F804F00F0089
:10186000002100F06EF870BD2DE9F04707460E46E6
:101870009046994600250024A8F12000C5B27F2F8C
:1018800002DD0027B01CC6B2B9F1100F24D13146D9
:101890003846FFF7D5FF002408E004EB0511194A8C
:1018A000505C012100F04DF8601CC4B2082CF4DB40
:1018B000701CC1B23846FFF7C3FF002409E004EBF7
:1018C000051108310F4A505C012100F03AF8601C04
:1018D000C4B2082CF3DB12E031463846FFF7B0FF04
:1018E00000240AE005EB4501074A02EB4101085DCF
:1018F000012100F026F8601CC4B2062CF2DBBDE822
:10190000F08700002A6D0008026B00082DE9F04105
:1019100005460E4614461F460EE022783B463146E9
:101920002846FFF7A1FF05F10800C5B2782D02DDBA
:101930000025B01CC6B2641C20780028EDD1BDE89B
:10194000F08170B504460D461DB1E0B200F04AF8D2
:1019500002E0E0B200F030F870BD00002DE9F04187
:1019600005462C464FF480711248FFF7BBF900265C
:101970001CE0274607F08007802F04D1B9000D48EE
:10198000FFF7B2F904E04FF400710A48FFF7AAF933
:101990006006040E4FF480710648FFF7A5F94FF476
:1019A00080710448FFF79EF9701CC6B2082EE0DB78
:1019B000BDE8F081000C014010B50446FFF774FE4D
:1019C0007820FFF7CBFFFFF79BFE0020FFF7C6FF55
:1019D000FFF796FE2046FFF7C1FFFFF791FEFFF7E6
:1019E0007BFE10BD10B50446FFF75EFE7820FFF7C2
:1019F000B5FFFFF785FE4020FFF7B0FFFFF780FE41
:101A00002046FFF7ABFFFFF77BFEFFF765FE10BD3B
:101A100030B589B004460D46012140F6040000F0BF
:101A20005DF84FF41060ADF8200018208DF8230009
:101A300003208DF8220008A91D48FFF77FF8002039
:101A4000ADF81A00ADF81600ADF81850ADF8144016
:101A50008DF81C0005A9174800F016FC6020ADF8B1
:101A600004000020ADF80C000120ADF806000020B5
:101A7000ADF80A0001A90F4800F032FB01A90D489A
:101A800000F084FB01210B4800F096FA0821094878
:101A900000F072FB0821074800F0B6FB0121054861
:101AA00000F072FA0121034800F07AFA09B030BD63
:101AB00000080140002C01407047000029B1064A8F
:101AC000D2690243044BDA6104E0034AD2698243DB
:101AD000014BDA61704700000010024029B1064A4C
:101AE00092690243044B9A6104E0034A926982437B
:101AF000014B9A61704700000010024030B5002190
:101B00000022002400232D4D6D6805F00C0121B149
:101B1000042905D0082923D105E0294D056022E0DC
:101B2000274D05601FE0254D6D6805F47012234DAB
:101B30006D6805F48034022505EB92421CB9214DF5
:101B4000554305600BE01D4D6D6805F400351DB172
:101B50001C4D5543056002E0194D5543056002E0F8
:101B6000174D056000BF00BF144D6D6805F0F00112
:101B70000909154D6B5C0568DD4045600F4D6D68CA
:101B800005F4E061090A104D6B5C4568DD40856035
:101B90000A4D6D6805F46051C90A0B4D6B5C4568D0
:101BA000DD40C560054D6D6805F44041890B074D6A
:101BB0006B5CC568B5FBF3F5056130BD00100240F4
:101BC00000127A0000093D0044000020540000206B
:101BD000704710B500F002F810BD00000CB50020F1
:101BE000019000903348006840F48030314908602B
:101BF00000BF3048006800F4003000900198401C9D
:101C00000190009818B90198B0F5A06FF1D129485A
:101C1000006800F4003010B10120009001E00020C5
:101C200000900098012843D12348006840F010003C
:101C3000214908600846006820F003000860084653
:101C4000006840F0020008601A484068194948607E
:101C50000846406848600846406840F48060486034
:101C60000846406820F47C1048600846406840F40C
:101C7000E81048600846006840F08070086000BFC7
:101C80000C48006800F000700028F9D0094840684E
:101C900020F00300074948600846406840F0020011
:101CA000486000BF0348406800F00C000828F9D1E4
:101CB0000CBD00000010024000200240042808D1A2
:101CC0004FF0E021096941F004014FF0E022116179
:101CD00007E04FF0E021096921F004014FF0E02214
:101CE000116170477047000010B51348006840F05C
:101CF00001001149086008464068104908400E4933
:101D00004860084600680E4908400B4908600846CC
:101D1000006820F4802008600846406820F4FE0037
:101D200048604FF41F008860FFF753FF4FF00060DA
:101D30000449086010BD0000001002400000FFF8D8
:101D4000FFFFF6FE08ED00E0F0B50C461546002258
:101D50000021068C4FF6FE773E400684028B018CF4
:101D60004FF60C7632407E1C06EA03162E433243B1
:101D7000104EB0420ED0104EB0420BD0B0F1804F9A
:101D800008D00E4EB04205D00D4EB04202D00D4EDE
:101D9000B04206D14FF6FD76314044F001063143A2
:101DA00005E04FF6F576314044F0010631430283F9
:101DB0000184F0BD002C01400034014000040040CB
:101DC00000080040000C0040F0B50C46154600220B
:101DD00000210026078C4FF6EF7C07EA0C070784EA
:101DE000028B018C4FF6FF7707EA041640F6FF4797
:101DF0003A404FF6FF7707EA03373A434FF6FF774B
:101E000007EA05273A43114FB8420ED0104FB842A7
:101E10000BD0B0F1804F08D00E4FB84205D00E4F16
:101E2000B84202D00D4FB84206D14FF6DF773940A5
:101E300046F01007394305E04FF65F77394044F02C
:101E40001007394302830184F0BD0000002C0140DB
:101E5000003401400004004000080040000C004035
:101E6000F0B50C461546002200210026078C4FF6DF
:101E7000FF6C07EA0C070784828B018C4FF6FF7713
:101E800007EA04264FF60C773A404FF6FF7707EA49
:101E900003172F433A43114FB8420ED0104FB842A8
:101EA0000BD0B0F1804F08D00E4FB84205D00E4F86
:101EB000B84202D00D4FB84206D14FF6FF57394015
:101EC00046F48077394305E04FF2FF57394044F438
:101ED0008077394382830184F0BD0000002C0140EB
:101EE000003401400004004000080040000C0040A5
:101EF000F0B50C461546002200210026078C4EF650
:101F0000FF7C07EA0C070784828B018C4FF6FF7772
:101F100007EA043640F6FF473A404FF6FF7707EAF4
:101F200005273A434FF6FF7707EA03373A43114F45
:101F3000B8420ED0104FB8420BD0B0F1804F08D04D
:101F40000E4FB84205D00E4FB84202D00D4FB842E6
:101F500006D14DF6FF77394046F48057394305E006
:101F600047F6FF57394044F4805739438283018450
:101F7000F0BD0000002C014000340140000400408E
:101F800000080040000C004021B1028842F08002AD
:101F9000028004E002884FF67F731A400280704787
:101FA00021B1028842F00102028004E002884FF66B
:101FB000FE731A400280704731B1B0F8442042F4F9
:101FC0000042A0F8442005E0B0F84420C2F30E021D
:101FD000A0F844207047F0B50C4615461E46002177
:101FE000002200230189028B038C4FF6F8773940D9
:101FF00021434FF6FC473A4040F201173A434FF66F
:10200000DD773B404FF6FF7707EA06172F433B4348
:10201000018102830384F0BD0146888C7047000073
:1020200070B505460C46244885420ED023488542AB
:102030000BD0B5F1804F08D02148854205D021480A
:10204000854202D02048854200D100E000BF2088B0
:1020500050B92389A28861882846FFF775FEE18878
:10206000284600F0E5F825E0208804280AD12389D5
:10207000A28861882846FFF7A7FEE188284600F07D
:10208000E0F817E0208808280AD12389A28861880F
:102090002846FFF7E5FEE188284600F0DFF809E072
:1020A0002389A28861882846FFF722FFE188284615
:1020B00000F0DDF870BD0000002C0140003401404C
:1020C0000004004000080040000C00400021018096
:1020D0004180012181800021C18001817047000081
:1020E00070B5002400220023058C4FF6FE763540A3
:1020F0000584028C8388048B4FF68F752C40B51EA7
:102100002C400D882C43751E2A400D892A434D888A
:102110002A43144DA8420BD0134DA84208D0134DAA
:10212000A84205D0124DA84202D0124DA84213D1A8
:102130004FF6F7752A404D892A434FF6FB752A4022
:102140008D882A434FF6FF652B404FF6FF552B40F5
:102150008D892B43CD892B4383800483CD8885864D
:10216000028470BD002C0140003401400040014059
:1021700000440140004801400A460021018B4FF60F
:10218000F7731940114301837047000070B50022B6
:1021900000230024058C4EF6FF7635400584038C21
:1021A0008488828B48F6FF752A404FF6FF452A4007
:1021B0000D884FF6FF7606EA05252A434DF6FF7592
:1021C0002B400D8906EA05352B434D8806EA053577
:1021D0002B430B4DA84202D00A4DA84208D14BF622
:1021E000FF752C408D894FF6FF7606EA85152C4346
:1021F00084808283CD88A0F84050038470BD0000A5
:10220000002C0140003401400A460021818B4FF22E
:10221000FF7319404FF6FF7303EA022319438183CA
:10222000704781867047A0F84010704781847047DE
:10223000028B4FF6F3731A400283028B0A43028328
:102240007047028B4FF2FF331A400283028B4FF626
:10225000FF7303EA01231A4302837047828B4FF610
:10226000F3731A408283828B0A4382837047828B86
:102270004FF2FF331A408283828B4FF6FF7303EADB
:1022800001231A4382837047002202881D4B984223
:102290000ED01D4B98420BD0B0F1804F08D01B4B95
:1022A000984205D01A4B984202D01A4B984204D15A
:1022B0004FF68F731A404B881A43174B984207D03A
:1022C000164B984204D04FF6FF431A40CB881A436E
:1022D00002808B8883850B8803850A4B98420BD03C
:1022E000094B984208D00E4B984205D00D4B9842AE
:1022F00002D00D4B984201D10B7A038601238382D1
:1023000070470000002C01400034014000040040F0
:1023100000080040000C0040001000400014004085
:102320000040014000440140004801404FF6FF7169
:10233000818000210180C1804180017270470000CE
:102340002DE9F0410446204604F090F98046074804
:10235000006880F000474146384604F0E7F9064639
:1023600004F048F905462846BDE8F08178000020D1
:1023700010B540F225511D4800F04AF810B31B4833
:1023800000F002F9C4B21A48008800F40040C8B94D
:102390001748008800F4804060B10A2C03D0002068
:1023A0001349088020E01248008840F4004010499A
:1023B000088019E00D2C06D10D48008840F48040BB
:1023C0000B49088010E00A480088C0F30D00094955
:1023D0000C5407480088401C0549088008460088BE
:1023E000C72801DD0020088010BD00000038014032
:1023F00060000020D800002021B1828942F4005200
:10240000828104E082894DF6FF731A408281704711
:1024100070B50246002400230025002040F66A160D
:10242000B14200D100BFC1F3421501F01F030126E4
:1024300006FA03F3012D02D19689334006E0022DFE
:1024400002D1168A334001E0968A33400C120126ED
:1024500006FA04F41688344013B10CB1012000E0F0
:10246000002070BDF0B503460024002600250020A2
:1024700040F66A17B94200D100BF1846C1F34214B2
:1024800001F01F06012707FA06F5012C01D10C30D7
:1024900004E0022C01D1103000E014301AB10768BA
:1024A0002F43076002E00768AF430760F0BD0000FC
:1024B0002DE9F04786B005460E460024A24600BF2F
:1024C000A1460027B08900B100BF2F462C8A4CF6E8
:1024D000FF700440F08804432C82AC894EF6F31060
:1024E0000440B08831890843718908430443AC81B2
:1024F000AC8A4FF6FF400440B0890443AC8201A887
:10250000FFF7FCFA1F48874202D1DDF810A001E076
:10251000DDF80CA0A88900F4004040B10AEBCA0025
:1025200000EB0A1031684900B0FBF1F807E00AEB54
:10253000CA0000EB0A1031688900B0FBF1F8642092
:10254000B8FBF0F004012009642101FB1089A8897F
:1025500000F4004040B1322000EBC900B0FBF1F0C4
:1025600000F00700044308E0322000EB091064216A
:10257000B0FBF1F000F00F0004432C8106B0BDE881
:10258000F08700000038014001468888C0F3080049
:10259000704700BFFEE700002DE9F05F04460D46DE
:1025A000314E6019314908603148006804F05EF826
:1025B0008246314604F0BAF880462C48006804F0A0
:1025C00055F8824631464FF07E5004F0ADF983460F
:1025D000514604F0ABF88146414603F0A7FE07469A
:1025E00004F008F82349086008460068204908609C
:1025F000214800681F49096808441F4908600846C7
:10260000006842F21071884201DB084608E01A486F
:1026100000681A49884201DC084601E01648006853
:10262000154908600846006804F020F882461448FE
:102630000168504604F07AF880460E48006804F0BD
:1026400015F882460F480168504604F06FF881463D
:10265000414603F06BFE074603F0CCFF0A490860D1
:1026600008460068BDE8F09F3333333F90000020F8
:102670009C0000209400002098000020F0D8FFFF6C
:1026800074000020700000208C0000202DE9F0472D
:1026900082460D46144621460A48006804F046F872
:1026A000804629460848006804F040F881464146C3
:1026B00003F03CFE074603F09DFF06463046BDE8AA
:1026C000F08700006C00002068000020490050EAFC
:1026D000C12018BF04204A0D18BF40F0010040F28D
:1026E000FF72B2EB515F08BF40F00200012808BF43
:1026F000052070472DE9F0414F1E00EBC70104464D
:10270000D1E9000115461E4637F006020DD02A46D3
:10271000334603F005FB7F1E04EBC703D3E9002318
:1027200003F03AF837F00602F1D1022F25D0042F3A
:1027300013D0062F18BFBDE8F0812A46334603F0B8
:10274000EFFAD4E90A2303F027F82A46334603F0C8
:10275000E7FAD4E9082303F01FF82A46334603F0CA
:10276000DFFAD4E9062303F017F82A46334603F0CC
:10277000D7FAD4E9042303F00FF82A46334603F0CE
:10278000CFFAD4E9022303F007F82A46334603F0D0
:10279000C7FAD4E90023BDE8F04102F0FDBF0122F1
:1027A00004F069B902F0F8BF002213461046114642
:1027B00003F0AEB8024A0020110704F05CB9000033
:1027C00001FDFFFF30380A2801D2012070470020A8
:1027D000704700BF704700002DE9FE4F06460F46C8
:1027E0000025684601F0DCF9002442E056F8240098
:1027F00057F82410A0EB010ABAF1000F01DB514693
:1028000001E0CAF10001084603F030FF83464FF0B3
:102810008F4103F0F9FD80465DF82400002103F0AC
:10282000B5FE16D05DF82410404603F0EDFD82465B
:102830004FF07E5104F078F8814629F0004A0F48A5
:10284000416A504604F03EF812D20120A0400543F0
:102850000EE00A48C169404603F034FF05D307483B
:10286000016A404604F02EF802D20120A040054340
:10287000641C032CBADB2846BDE8FE8F44730008B5
:102880002DE9F04D8D4F21F0004A86B005460C46EB
:10289000BA452ADBAAEB070028430AD088488245BC
:1028A00001DC1AD1CDB106B02846BDE8F04DFFF7E6
:1028B00076BF844A844B284603F032FA07460E4618
:1028C000824A834B2846214603F02AFA06B03A464C
:1028D0003346BDE8F04D02F05FBF0120FDF758FE22
:1028E00006B0BDE8F04DFFF75FBF7A48824542DA97
:1028F000BAF1795F0BDA2846FFF7E8FE042808BF33
:10290000FFF758FF284606B02146BDE8F08D2A465D
:102910000B46104603F004FA834602466E480E4604
:102920000B4606217844FFF7E5FE5A46334603F08E
:10293000F7F9804669488A465A4633460421784466
:10294000FFF7D8FE5A46334603F0EAF900223B4629
:1029500002F022FF02460B464046514602F0D8FFE5
:102960002A46234603F0DCF906B02A462346BDE892
:10297000F04D02F011BF284624F0004100223D46F0
:102980003B4603F0CBFA4FF0FF3204F074F80646F2
:10299000024653480F460B4606217844FFF7AAFE2D
:1029A00032463B4603F0BCF9CDE900014D483246C2
:1029B0003B4604217844FFF79DFE32463B4603F038
:1029C000AFF900222B4602F0E7FE83460291304623
:1029D000394602F039FE804643480D46504517DC23
:1029E000DDE900015A46029B02F092FF42462B4667
:1029F00003F096F942462B4602F0CEFE012204F087
:102A00003AF8304A304B03F07BFB304A304B4CE015
:102A10004FF0000A52460B46404602F0BDFECDE99B
:102A2000031052462B461046194603F079F93246F8
:102A30003B4603F073FADDE9033202F069FF064614
:102A40000F46DDE900015A46029B02F061FF834612
:102A5000009101223046394604F00DF8194A1A4B0C
:102A600003F05CFA06460F4601224046294604F070
:102A700002F85A46009B03F053F932463B4603F0F6
:102A80003FFB06460F4601225046294603F0F3FF5E
:102A90000E4DDFF858802A46434603F03FFA32468F
:102AA0003B4603F03BFA2A46434603F037FA002C34
:102AB000D8BF81F0004106B0BDE8F08D0000F03FC6
:102AC0000000F07F075C143326A6913C182D445477
:102AD000FB21F93F0000E03F505600006656000021
:102AE000DA550000F05500003333EF3FFB21E93F9A
:102AF0002DE9F84F04460D4621F00040009173493E
:102B0000814211DC7249884201DC06D12CB1204699
:102B10002946BDE8F84FFFF742BE6E48002DCCBFF6
:102B20006D496E49BDE8F88F6D49814211DD6D49EF
:102B30008142D8BF4FF0FF366DDD20462946FFF7B2
:102B4000C5FD042808BFFFF735FE20462946BDE82D
:102B5000F88F6549654F25F00045814233DD6449B2
:102B6000814219DD002632464FF080432046294637
:102B700002F012FE80468A4601222046294603F0D2
:102B80007AFF00223B4603F0BBFA4246534602F06E
:102B9000BFFE04460D463EE001260022BA463B46F3
:102BA0002046294602F0F8FD80460F460022534693
:102BB0002046294603F0A4FA42463B4602F0A8FE0E
:102BC00004460D4627E04B4981421BDDDFF828A172
:102BD0000226002253462046294603F0A1F800228F
:102BE0003B4602F0D9FD80460F4600225346204660
:102BF000294603F085FA42463B4602F089FE044628
:102C00000D4608E0032622462B4600203B4902F0F1
:102C10007FFE04460D4622462B461046194603F019
:102C20007FF88B46824602460B4603F079F807464A
:102C30000246334888460B4606217844FFF75AFD82
:102C400052465B4603F06CF882462E488B463A4665
:102C5000434605217844FFF74DFD3A46434603F0CD
:102C60005FF802460B46002E504659460CDA02F039
:102C700093FD22462B4603F053F801B022462B4623
:102C8000BDE8F04F03F04AB902F086FD22462B461C
:102C900003F046F81C4A7A4402EBC603D3E900234A
:102CA00003F02EFA22462B4603F02AFA174A7A44FA
:102CB00002EBC603D3E9002303F030F9009A002A9F
:102CC000B8BF81F00041BDE8F88F0000000010445B
:102CD0000000F07F182D4454FB21F93FFB21F9BF80
:102CE0000000DC3F0000203E0000F33F0000F03F0A
:102CF0000000E63F008003400000F83F0000F0BF06
:102D0000F2530000B05300004E5300001653000071
:102D10002DE9F04D9446CCF1000423F000464CEA36
:102D20000404524F46EAD4749A46884621F0004281
:102D3000BC4206D8454240EA050442EAD474BC428B
:102D400004D9BDE8F04D6246FFF72CBDAAF140550D
:102D5000A5F17F6555EA0C040BD0022404EAAA749D
:102D6000434DDFF810E144EAD87452EA000B04D076
:102D70000CE0BDE8F04DFFF7BBBE002C14BF012CEA
:102D8000BDE8F08D022C30D0032C32D056EA0C0B6B
:102D90000AD0BE4220D1BA4209D126F0804622F0A4
:102DA00080423346114617E000291ADB25E0DFF8A0
:102DB000C8B0FB44002C04BFDBE90001BDE8F08D86
:102DC000012C02BFDBE9000181F00041BDE8F08D7C
:102DD000022C0AD0032C0CD0BA4212D1B8F1000F49
:102DE0000BDA23482549BDE8F08D28462449BDE883
:102DF000F08D28467146BDE8F08D1D482149BDE89B
:102E0000F08D921B12153C2AC4BF19481D490EDCD7
:102E1000BAF1000FBEBF12F13C0F0020014606DBE5
:102E2000624602F075FD21F00041FFF761FE002CC3
:102E300008BFBDE8F08D012C04BF81F00041BDE862
:102E4000F08D114A114B022C07D003F059F92A4694
:102E5000BDE8F04D0A4B03F053B903F051F92A468F
:102E6000BDE8F04D064B03F059B800000000F07FBC
:102E7000182D4454FB2109C0AA520000FB21F9BFC0
:102E8000FB210940FB21F93F075C143326A6A13C36
:102E90002DE9F0410446E07800F0C006E07800F04B
:102EA0003F05607800F0010098B1EF102846E9175F
:102EB00005EB5171C910A5EBC101491C01F0FF08D8
:102EC0000B48006820B10A484146026838469047DE
:102ED00000BF607800F0080030B10548406818B1C4
:102EE000B011034A516888470020BDE8F081000016
:102EF000A001002010B56FF00400FEF7DFFE0A48C5
:102F000000680A49B0FBF1F00949087008460078EA
:102F100000EB4001C1EBC0104FF6FF7101EAC000A9
:102F20000449088010BD00003000002000127A0023
:102F3000580000205A0000200146114A12884A43D6
:102F40004FF0E0235A6100229A611A46126942F05A
:102F500001021A6100BF4FF0E022106900F0010287
:102F60001AB100F48032002AF5D04FF0E022126945
:102F700022F001024FF0E0231A6100229A617047AB
:102F80005A0000200146114A12784A434FF0E023CC
:102F90005A6100229A611A46126942F001021A61CE
:102FA00000BF4FF0E022106900F001021AB100F4F6
:102FB0008032002AF5D04FF0E022126922F001029F
:102FC0004FF0E0231A6100229A61704758000020F8
:102FD00038B5044664B120208DF8000028208DF813
:102FE000010030208DF8020038208DF8030004E045
:102FF000A32204216846FDF743FA6A46042140F6FD
:103000009E2002F04FFA01F039FE38BD3EB504466D
:1030100002208DF80000CA208DF80100E3208DF811
:10302000020009208DF803006A460421682002F09E
:1030300039FAA3208DF8000004F0400048B1C02008
:103040008DF80100C8208DF80200C2208DF8030021
:1030500006E0A3208DF801008DF802008DF8030032
:1030600004F4C07048B1C4208DF80400CC208DF861
:103070000500C6208DF8060006E0A3208DF80400A8
:103080008DF805008DF80600A3208DF807008DF857
:1030900008008DF809006A460A2140F6A72002F0D0
:1030A00001FA04F0030018B120208DF8000002E0BE
:1030B000D8208DF800006A46012140F6B62002F0C3
:1030C000F1F904F0200018B1012000F0ADF802E0A1
:1030D000002000F0A9F804F4C07008B304F4807074
:1030E00060B1B2208DF800008B208DF80100B62071
:1030F0008DF802009B208DF803000BE0B0208DF8C6
:10310000000080208DF80100B4208DF8020090208E
:103110008DF803006A46042140F6A22002F0C2F9AD
:1031200004F0010020B3F8208DF800006A46012168
:103130004FF40B6002F0B6F9FA21072000F02CFCE6
:10314000072000F0F3FB012000F013FC642000F0E6
:10315000F3FC4FF4FA7000F002FDC821304800F093
:10316000A3FB282000F0BCFB0A2000F0CCFB08E009
:10317000D8208DF800006A4601214FF40B6002F060
:1031800091F904F0020018B1D9208DF8000002E096
:10319000D8208DF800006A46012140F23D7002F00F
:1031A00081F904F0040018B1012000F069F802E090
:1031B000002000F065F804F0100018B10120FFF7BE
:1031C00007FF02E00020FFF703FF44F00800154965
:1031D000488101F053FD00201249887304F040003B
:1031E00018B10846807B801D887304F4C07020B13C
:1031F0000C48807B801D0B49887304F0140020B1BB
:103200000848807B10300749887304F0030020B120
:103210000448807B001D0349887300203EBD0000E8
:1032200009E3CA02A00100203EB504466CB10EA11C
:10323000D1E900208968CDE9002002916A46092180
:103240004FF4976002F02EF93EBD0AA2D2E90010B9
:103250009268CDE9010200916A4609214FF4976016
:1032600002F020F9F0E70000B8AAB38DB4980D354C
:103270005D000000B8AAAAAAB088C3C5C7000000B4
:1032800038B5044664B1C0208DF80000C2208DF826
:103290000100C4208DF80200C6208DF8030004E070
:1032A0008B2204216846FDF7EBF86A46042140F6BC
:1032B000982002F0F7F801F0E1FC38BD10B5C82302
:1032C0004FF48062024940F6F63001F06BFB10BD0E
:1032D0006C7300082DE9F04F8DB0074688461546FF
:1032E0009946DDE9166B0024002030806B49887B0D
:1032F0005A4605A901F022FC18B1601E0DB0BDE8C8
:10330000F08F6648807A00F01400002867D09DF89E
:10331000140000069DF8151040EA01409DF81610B3
:1033200040EA01209DF81710084328609DF8180016
:1033300000069DF8191040EA01409DF81A1040EA75
:1033400001209DF81B10084368609DF81C000006D2
:103350009DF81D1040EA01409DF81E1040EA012032
:103360009DF81F100843A8609DF8200000069DF8F6
:10337000211040EA01409DF8221040EA01209DF80A
:1033800023100843E86004F11000C4B22868001458
:103390000190686800140290A86800140390E8681F
:1033A0000014049001984043029901FB0100039925
:1033B00001FB0100049901FB010ABAF1706F02DB05
:1033C000BAF1885F05DD01F059FC00203080401E15
:1033D00094E7B6F9000040F48070308000BF2F48B9
:1033E000807A00F0400020B305A9601C085C095DEC
:1033F00040EA012000B2A8F8000005A9E01C095C21
:1034000005AAA01C105C41EA002000B2A8F8020046
:1034100005A9601D095C201D105C41EA002000B276
:10342000A8F80400A01DC4B2B6F9000040F00800DE
:1034300030801A48408900F4C07008B305A9601CA8
:10344000085C095D40EA012000B2388005A9E01C53
:10345000095C05AAA01C105C41EA002000B278803B
:1034600005A9601D095C201D105C41EA002000B226
:10347000B880A01DC4B2B6F9000040F070003080E2
:103480000648807A00F0030018B105A90819FFF773
:10349000FFFC484600F01AFF00202FE7A0010020A3
:1034A00070B588B0064601A801F0D0F8BDF8040058
:1034B0000021C90341EA5045C4034448007A00F0A2
:1034C000030056F8200005904048007A00F0040000
:1034D00010B10598404205903C48007AC0F3C10005
:1034E00056F8200006903948007A00F0200010B10C
:1034F0000698404206903548007AC0F3811056F88D
:10350000200007903148008900F4807010B10798BE
:10351000404207900598C117A0FB042301FB04312A
:1035200000FB0510810041EA927005900698C117D2
:10353000A0FB042301FB043100FB0510810041EADC
:10354000927006900798C117A0FB042301FB043179
:1035500000FB0510810041EA927007900598000E6B
:103560008DF808000598000C8DF809000598000AF0
:103570008DF80A000598C0B28DF80B000698000E71
:103580008DF80C000698000C8DF80D000698000AC6
:103590008DF80E000698C0B28DF80F000798000E47
:1035A0008DF810000798000C8DF811000798000A9C
:1035B0008DF812000798C0B28DF8130002AA0C21F2
:1035C0004FF4257001F06EFF08B070BDA00100201F
:1035D00030B585B0044616A207CA02AB07C3C82C93
:1035E00003DD4FF0FF3005B030BDC82090FBF4F094
:1035F000401E85B2280A8DF80000E8B28DF801005F
:103600006A46022140F2162001F04CFF10B14FF043
:10361000FF30E8E702AA0C2140F6C12001F042FF8A
:1036200010B14FF0FF30DEE7044884810020DAE774
:10363000FEF2ABC4AAF1DFDFBBAFDFDFA0010020E9
:103640001FB504464848007A00F0030054F82000F3
:1036500001904548007A00F0040010B10198404202
:1036600001904148007AC0F3C10054F82000029054
:103670003D48007A00F0200010B1029840420290CC
:103680003948007AC0F3811054F82000039036487E
:10369000008900F4807010B10398404203903349D0
:1036A000019880FB0101800F40EA810001902F49C1
:1036B000029880FB0110820042EA917002902B492F
:1036C000039880FB0110820042EA917003900198F8
:1036D000000E8DF800000198000C8DF80100019893
:1036E000000A8DF802000198C0B28DF803006A4606
:1036F00004214FF4747001F0D5FE18B14FF0FF3083
:1037000004B010BD0298000E8DF800000298000C65
:103710008DF801000298000A8DF802000298C0B2EC
:103720008DF803006A4604214FF4757001F0BAFE6B
:1037300010B14FF0FF30E3E70398000E8DF8000062
:103740000398000C8DF801000398000A8DF8020020
:103750000398C0B28DF803006A4604214FF47670D6
:1037600001F0A0FECCE70000A001002009E3CA029E
:1037700010B586B0044647A00068039046A00068D4
:10378000029046A00068019045A00068009004F0F7
:10379000030003A9085C8DF8140003A8C4F3C10159
:1037A000405C8DF8150003A8C4F38111405C8DF8CE
:1037B000160004F0030002A9085C8DF8100002A8AE
:1037C000C4F3C101405C8DF8110002A8C4F381115B
:1037D000405C8DF8120005AA032140F2264001F05A
:1037E00061FE18B14FF0FF3006B010BD04AA0321EE
:1037F00040F22A4001F056FE10B14FF0FF30F3E7DF
:10380000019805900098049004F0040058B19DF8C8
:10381000140040F001008DF814009DF8100040F0F5
:1038200001008DF8100004F0200058B19DF815003B
:1038300040F001008DF815009DF8110040F00100E6
:103840008DF8110004F4807058B19DF8160040F016
:1038500001008DF816009DF8120040F001008DF86F
:10386000120005AA03214FF4886001F01BFE10B17D
:103870004FF0FF30B8E704AA032140F2314001F0D5
:1038800011FE10B14FF0FF30AEE706480481002072
:10389000AAE700004CCD6C000CC92C00365676000F
:1038A00026466600A0010020F8B505460E464FF4F6
:1038B0007A7095FBF0F000FB06F4200E8DF8000006
:1038C000200C8DF80100200A8DF80200E0B28DF87E
:1038D00003006A4604214FF4AE7001F0E3FDF8BD29
:1038E00038B50446052094FBF0F084B220128DF820
:1038F0000000E0B28DF801006A4602214FF4AD707D
:1039000001F0D0FD38BD38B50446052094FBF0F039
:1039100084B220128DF80000E0B28DF801006A46F2
:1039200002214FF4AC7001F0BDFD38BD38B504463E
:103930000020009004F0010020B19DF8000040F04C
:103940003000009004F0020020B19DF8000040F02B
:103950000C00009004F0040020B19DF8000040F03D
:10396000030000906A4601214FF4A47001F09AFD13
:1039700038BD38B50446012C01DA012402E0042CDC
:1039800000DD0424601EC0B200906A46012140F2AE
:103990004F1001F087FD38BD2DE9FC4706460F4664
:1039A00006F0070010B1B7F5C86F03DD4FF0FF3028
:1039B000BDE8FC87384602F071FE8146594902F0A5
:1039C00023FD8046684600F01BFE9DF8000002289B
:1039D00006D0042816D0082826D0102848D135E073
:1039E0004FF08D41404602F0A1FE814602F01EFEDE
:1039F00084B24D49404602F099FE814602F016FE1F
:103A000085B238E04FF08C41404602F08FFE81468F
:103A100002F00CFE84B24549404602F087FE814622
:103A200002F004FE85B226E04FF08B41404602F0E2
:103A30007DFE814602F0FAFD84B23D49404602F027
:103A400075FE814602F0F2FD85B214E04FF08A4126
:103A5000404602F06BFE814602F0E8FD84B2354933
:103A6000404602F063FE814602F0E0FD85B202E0CE
:103A70004FF0FF309CE700BF20128DF80400E0B249
:103A80008DF8050028128DF80600E8B28DF80700C1
:103A900006F00100A0B101AA02214FF4EA7001F082
:103AA00001FD10B14FF0FF3082E70DF10602022157
:103AB0004FF4927001F0F6FC10B14FF0FF3077E751
:103AC00006F00200A0B101AA02214FF4EC7001F04F
:103AD000E9FC10B14FF0FF306AE70DF10602022158
:103AE0004FF4947001F0DEFC10B14FF0FF305FE74F
:103AF00006F00400A0B101AA02214FF4EE7001F01B
:103B0000D1FC10B14FF0FF3052E70DF10602022157
:103B10004FF4967001F0C6FC10B14FF0FF3047E74C
:103B2000002045E700004843000040460000C04533
:103B3000000040450000C04438B50446052094FB11
:103B4000F0F085B228128DF80000E8B28DF801007F
:103B50006A4602214FF4EF7001F0A4FC38BD38B57D
:103B60000446052094FBF0F085B228128DF8000081
:103B7000E8B28DF801006A4602214FF4ED7001F0C1
:103B800091FC38BD00BF054A128802F04002002AAD
:103B9000F9D0C2B2014B1B1D1A807047003801409A
:103BA0007CB5054628494968087801AB04220D21F7
:103BB000FDF748FB08B107207CBD9DF80700C0F366
:103BC00001109DF8041001F0E00140EAE1008DF8D9
:103BD00000009DF80700C0F381009DF8051001F07A
:103BE000E00140EAE1008DF801009DF8070000F0D7
:103BF00003009DF8061001F0E00140EAE1008DF8B5
:103C0000020000241CE01DF8040018B9002045F84B
:103C1000240013E00D4845F8240006E055F8240080
:103C20000B4902F083FD45F824001DF80400401EF6
:103C3000C0B20DF804000028F0D100BF601CC4B26F
:103C4000032CE0DB0020B7E7A00000207B14AE3E91
:103C50001D5A843F2DE9F04F87B005460C4691462A
:103C600001208DF8100000208DF81100FE4A126826
:103C7000917CFD4A5268107804AB0222FDF788FB64
:103C800020B14FF0FF3007B0BDE8F08FC820FFF73C
:103C900053F900208DF81000F34A1268D17BF24AE4
:103CA0005268107804AB0122FDF772FB10B14FF09F
:103CB000FF30E8E7EC4A12685179EB4A5268107815
:103CC00004AB0122FDF764FB10B14FF0FF30DAE7DF
:103CD000E54A1268917CE44A5268107804AB0122EC
:103CE000FDF756FB10B14FF0FF30CCE7DE4A12680B
:103CF000D17DDD4A5268107804AB0122FDF748FB04
:103D000010B14FF0FF30BEE7D74A12681179D64A9A
:103D10005268107804AB0122FDF73AFB10B14FF066
:103D2000FF30B0E70C208DF81000CF4A12681179EF
:103D3000CD4A5268107804AB0122FDF729FB10B17F
:103D40004FF0FF309FE70F20FFF7F6F8C648806A74
:103D5000407A8DF81000C44A12689178C24A5268BD
:103D6000107804AB0122FDF713FB10B14FF0FF30C8
:103D700089E7BD48806A007A8DF81000BA4A126857
:103D80005178B94A5268107804AB0122FDF700FB64
:103D900010B14FF0FF3076E7B9F1000F07D0B2480D
:103DA000806A807A40F0E0008DF8100004E0AE48B0
:103DB000806A807A8DF81000AB4A12689179AA4A1D
:103DC0005268107804AB0122FDF7E2FA10B14FF00F
:103DD000FF3058E7B9F1000F07D0A348806AC07AD6
:103DE00040F0E0008DF8100003E0A048C07A8DF8A4
:103DF00010009D4A1268D1799B4A5268107804AB32
:103E00000122FDF7C5FA10B14FF0FF303BE7B9F1E1
:103E1000000F02D0C820FFF78FF840208DF8100067
:103E2000914A12681179904A5268107804AB0122C5
:103E3000FDF7AEFA10B14FF0FF3024E778208DF88F
:103E40001000894A12685179874A5268107804AB89
:103E50000122FDF79DFA10B14FF0FF3013E78349BF
:103E60008889FFF769F800208DF810007E4A1268F3
:103E700051797D4A5268107804AB0122FDF788FA27
:103E800010B14FF0FF30FEE6774A1268917A764A19
:103E90005268107804AB0222FDF7D4F910B14FF04C
:103EA000FF30F0E69DF811009DF8101040EA012B5C
:103EB0000C209BFBF0F0C6B20020A8606860286070
:103EC000A06060602060824665E0674A1268D17A2F
:103ED000654A5268107804AB0C22FDF7B3F910B1B3
:103EE0004FF0FF30CFE69DF811009DF8101040EA2A
:103EF000012000B2ADF808009DF813009DF81210E3
:103F000040EA012000B2ADF80A009DF815009DF8C6
:103F1000141040EA012000B2ADF80C00BDF9081001
:103F2000206808442060BDF90A1060680844606099
:103F3000BDF90C10A0680844A0609DF817009DF81A
:103F4000161040EA012000B2ADF800009DF81900FB
:103F50009DF8181040EA012000B2ADF802009DF86B
:103F60001B009DF81A1040EA012000B2ADF80400D1
:103F7000BDF90010286808442860BDF9021068687F
:103F800008446860BDF90410A8680844A8600AF1F4
:103F9000010000F0FF0AB24597DB3448D0F800C0BA
:103FA0002868C117090441EA10410704624600234A
:103FB0003846FCF730F932460023CDE90201FCF720
:103FC0002AF928602948D0F800C06868C117090498
:103FD00041EA10410704624600233846FCF71BF90A
:103FE00032460023CDE90201FCF715F968601F484D
:103FF000D0F800C0A868C117090441EA10410704BD
:10400000624600233846FCF706F932460023CDE924
:104010000201FCF700F9A8601448D0F804C0216838
:10402000C817000440EA11480F04624600233846CE
:104030004146FCF7F0F832460023CDE90201FCF7D7
:10404000EAF820600948D0F804C06068C117090484
:1040500041EA10410704624600233846FCF7DBF8CA
:104060003246002304E00000A00000204473000852
:10407000CDE90201FCF7CFF860601148D0F804C028
:10408000A068C117090441EA1041070462460023F1
:104090003846FCF7C0F832460023CDE90201FCF7B0
:1040A000BAF8A060A068002804DDA068A0F5803000
:1040B000A06003E0A06800F58030A0600020E2E589
:1040C000447300082DE9FC5F06460F4600253D4974
:1040D0004968087801AB03220D21FDF7B3F810B150
:1040E0000720BDE8FC9F9DF8040000F01F008DF83C
:1040F00004009DF8050000F01F008DF805009DF8F4
:10410000060000F01F008DF80600002456E056F867
:10411000240057F82410A0EB010BBBF1000F01DBCA
:10412000594601E0CBF10001084602F09FFA4FF03A
:104130008F41009002F068F9814601A8005D68B3E4
:104140002149086802F0AAFA834659461F4802F03E
:104150005BF9804604E01E49404602F0E7FA8046DB
:1041600001A8005D401EC0B201A908550028F2D187
:104170004146484602F048F983464FF07E5102F02E
:10418000D3FB82462AF0004B0F488169584602F063
:1041900099FB12D20120A04005430EE00A480169B4
:1041A000484602F08FFA05D307484169484602F0B5
:1041B00089FB02D20120A0400543641C032CA6DB2E
:1041C00028468EE7A00000204473000800B04C454C
:1041D00054E3853F10B50446204600F00FF803462F
:1041E000E01C00F00BF843EAC00083B2A01D00F011
:1041F00005F843EA801083B2184610BD014691F9D4
:104200000020002A01DD00201EE091F90020002A94
:1042100001DA042018E091F90120002A01DD0120D3
:1042200012E091F90120002A01DA05200CE091F951
:104230000220002A01DD022006E091F90220002A76
:1042400001DA062000E007207047000008B54FF4AF
:10425000A060FDF71FF9FEF74DFE4FF4E13001F0CD
:1042600019FAFDF75BFAFDF71FF9FCF791FF00F073
:1042700079F9FCF7C5FDFCF79DFBFCF7E9FBFDF7C1
:10428000B9F841F61F410020FDF7C2FB19E00D48C7
:10429000006802F01FF80446012022460B46002168
:1042A00000900846FDF720F90748006801F0E5FC9A
:1042B0000446012022460B46322100900846FDF7B5
:1042C00013F9E4E7000000208000002070470000A0
:1042D00070B50446002624F00104184890F8240024
:1042E00008B1002070BD1548807A10B94FF0FF303A
:1042F000F8E71248057C807A204010490874084687
:10430000007CA04202D04FF0FF3600E0002614B936
:104310000A48007D18B1012001F04EF902E00020AA
:1043200001F04AF93CB100F0A9FC20B10348057442
:104330004FF0FF30D6E73046D4E70000A000002061
:104340002DE9F04F99B004460D4616464FF07E57C2
:104350004FF000084FF000094FF0000A12A813A90F
:1043600018AB0EAACDE9001014A916A8FEF7B2FFEB
:1043700018B1012019B0BDE8F08FBDF84C0000F471
:10438000807000287ED00E9802F070F983464FF0BE
:104390009D4102F039F807460F9802F067F983460D
:1043A0004FF09D4102F030F88046109802F05EF91F
:1043B00083464FF09D4102F027F88146119802F0A4
:1043C00055F983464FF09D4102F01EF8824639466A
:1043D0004FF0804002F0AAF94946059002F0A6F994
:1043E000414607904FF0404002F0A0F95146059039
:1043F00002F09CF90690079901F098FF834601F0BE
:1044000069FFCDE90801FEF73BFA4FF06632544BE5
:10441000CDE90A0101F084FCCDE90C0101F08AF933
:10442000206049464FF0804002F080F949460290F2
:1044300002F07CF9414604904FF0404002F076F9DA
:104440004146029002F072F90390049902F06CFA6E
:1044500083464FF07E5101F069FF059001F03AFF6D
:10446000CDE9080139464FF0804002F05FF941463E
:10447000039002F05BF9494604904FF0804002F04F
:1044800055F900E068E05146039002F04FF9834689
:10449000049901F04BFF059001F01CFFCDE90601E6
:1044A000DDE90823FEF734FC4FF066322C4BCDE9F2
:1044B0000A0101F035FCCDE90C0101F03BF928605F
:1044C0005146504602F032F949460490484602F0FF
:1044D0002DF941460390404602F028F939460190F3
:1044E000384602F023F90090019901F01FFF029075
:1044F000039902F019FA8346049902F015FA05901F
:1045000001F0E8FECDE908015146384602F00EF907
:1045100049460490404602F009F90390049901F0DD
:1045200005FF4FF08041059002F000F9834601F04D
:10453000D1FECDE90601DDE90823FEF7E9FB4FF0E6
:104540006632074BCDE90A0101F0EAFBCDE90C0127
:1045500001F0F0F8306001E002200BE7002009E7ED
:1045600066A64C4070B50024FCF7F8FC00F022F978
:1045700000283ED1782000F02DFFC4B20CB10120FC
:1045800070BD7820FFF7A4FEC4B20CB10220F7E79B
:10459000642000F0D1FEC4B20CB10320F0E7FEF7B6
:1045A0008DFEC4B20CB10420EAE71448FFF712FEF6
:1045B0000546FFF7DDF8C4B20CB10520E0E740F294
:1045C0007310FEF723FDC4B20CB10620D8E76420B7
:1045D000FEF7FEFFC4B20CB10720D1E700F0A2FF46
:1045E0000446012000F0A4FDC0B204461CB109201D
:1045F000C6E70A20C4E700BFC2E70000CC000020E5
:1046000001461148407A30B1012807D0022808D06D
:1046100003280CD108E0022008700BE00420087089
:1046200008E00820087005E01020087002E04FF054
:10463000FF30704700BF0448C07C18B108784006BE
:10464000000E08700020F4E7A00000200146134887
:10465000407A30B1012808D002280AD0032810D1AE
:104660000BE04FF4804008800EE041F69C7008801B
:104670000AE04FF48050088006E04FF400600880A4
:1046800002E04FF0FF30704700BF0448C07C10B11B
:104690000888401008800020F5E70000A0000020F6
:1046A00001460248007C087000207047A0000020EE
:1046B00001460F48007A30B1012807D0022809D0FE
:1046C00003280FD10AE0FA2008800EE04FF4FA70B8
:1046D00008800AE04FF47A70088006E04FF4FA6030
:1046E000088002E00020088000BF00BF0020704763
:1046F000A000002001460E48007A30B1012807D002
:10470000022808D003280CD108E00A4808600BE012
:104710000948086008E00948086005E008480860A2
:1047200002E04FF0FF30704700BF0020FBE70000C1
:10473000A000002000000343000083423333034203
:104740003333834101461248C07A082817D2DFE884
:1047500000F01704070A0D101318BC20088013E09E
:104760006220088010E02A2008800DE014200880D4
:104770000AE00A20088007E00520088004E000BF66
:1047800000BF0020088000BF00BF0020704700006D
:10479000A00000200146064890F8240010B14FF018
:1047A000FF3070470248C08908800020F9E7000008
:1047B000A00000201CB580208DF80000654A12681A
:1047C000917C644A526810786B460122FCF7E0FD48
:1047D00010B14FF0FF301CBD6420FEF7ADFB002090
:1047E0008DF800005B4A1268917C5A4A5268107832
:1047F0006B460122FCF7CCFD10B14FF0FF30EAE729
:10480000544A1268917D534A526810786B460622CA
:10481000FCF718FD10B14FF0FF30DCE79DF8050004
:10482000C007400F9DF8031001F0010140EA41006C
:104830009DF8011001F0010140EA010494B1012C3E
:1048400003D101214348C17431E0022C03D100217E
:104850004048C1742BE021463FA0FBF701FD4FF01B
:10486000FF30B8E73B4A1268D1783A4A526810786C
:104870006B460122FCF7E6FC10B14FF0FF30AAE7CF
:104880009DF8000000F00F042CB93D48FBF7E8FC50
:104890004FF0FF309FE7042C06D13AA0FBF7E0FC75
:1048A00001212C48C17402E000212A48C174FF2173
:1048B00028488172FF2027490872FF21254841724C
:1048C000C1724FF6FF71C181FF2101748174012112
:1048D000017380F82210002180F8231041750175C2
:1048E0001630016041608160163880F8241080F82D
:1048F0002510C1844FF4FA6000F062FC10B14FF053
:10490000FF3068E7022000F02BFB10B14FF0FF30C2
:1049100061E72A2000F0CEFC10B14FF0FF305AE7DB
:10492000322000F009FD10B14FF0FF3053E70020B6
:10493000FFF7CEFC10B14FF0FF304CE7002000F045
:1049400051FB10B14FF0FF3045E7002000F042FD71
:10495000002040E7A0000020556E737570706F72E4
:1049600074656420736F6674776172652070726F0E
:1049700064756374207265762025642E0A00000039
:104980006880000848616C662073656E736974699D
:1049900076697479207061727420666F756E642E0A
:1049A0000A0000002DE9F04385B005460E4690460A
:1049B0009946294890F8250020B14FF0FF3005B006
:1049C000BDE8F08316B94FF0FF30F8E7002423E08C
:1049D000281B102801DD102000E0281B87B23219A7
:1049E0003946204600F05EFD10B14FF0FF30E6E79B
:1049F00001AA3946204600F001F910B14FF0FF300E
:104A0000DDE730193A4601A9FBF70EFD10B16FF052
:104A10000100D4E7E01984B2AC42D9DB4FEA282088
:104A20008DF8000008F0FF008DF801000A4A1268B6
:104A3000917E094A526810786B460222FCF7A8FC66
:104A400010B14FF0FF30BAE70121034880F825107C
:104A5000A0F826900020B2E7A000002038B5044658
:104A6000282C02DD4FF0FF3038BDDCB9002000F00B
:104A7000EBFB00208DF8000007208DF801002E4A86
:104A80001268917C2C4A526810786B460222FCF71F
:104A90007FFC10B14FF0FF30E6E70021264801759A
:104AA0000020E1E7012000F0CFFB20208DF800007E
:104AB000012C06D100208DF80100052000F0FAFB42
:104AC00017E0052C06DC01208DF80100052000F020
:104AD000F1FB0EE0142C06DC02208DF801000A2008
:104AE00000F0E8FB05E003208DF80100142000F041
:104AF000E1FB9DF80100072101EB8010C0B28DF8A9
:104B000001000D4A1268917C0B4A526810786B467E
:104B10000222FCF73DFC10B14FF0FF30A4E7082162
:104B20000548817200210173012101750020FFF702
:104B3000CFFB002098E70000A0000020F8B5044655
:104B40000F4616462C4890F8240010B94FF0FF305D
:104B5000F8BD2948807A10B94FF0FF30F8E7264AAF
:104B60001268917A244A526810786B460222FCF748
:104B700069FB10B14FF0FF30EAE79DF801009DF8A6
:104B8000001040EA0125A54203DA00203070401EE3
:104B9000DEE7194840684088B5EB600F17DD164A1C
:104BA0001268517C144A526810786B460122FCF757
:104BB00049FB10B14FF0FF30CAE79DF8000000F04C
:104BC000100020B100F05AF86FF00100C0E7E2B227
:104BD000094B1B68D97A084B5B6818783B46FCF791
:104BE00031FB10B14FF0FF30B2E795FBF4F0401EFF
:104BF00030700020ACE70000A0000020F8B50446AB
:104C00000D46164616B94FF0FF30F8BD1A48807AA7
:104C100010B94FF0FF30F8E720128DF80000E0B235
:104C20008DF801009DF8010028441349496849891D
:104C3000884202DD4FF0FF30E7E70F4A1268117E2D
:104C40000D4A526810786B460222FCF7A1FB10B1A6
:104C50004FF0FF30D9E7EAB2074B1B68597D064B8E
:104C60005B6818783346FCF7EDFA10B14FF0FF306F
:104C7000CBE70020C9E70000A000002008B570487D
:104C8000807A10B94FF0FF3008BD002000906C4AC8
:104C90001268D17B6A4A526810786B460122FCF791
:104CA00077FB10B14FF0FF30EEE7654A126851799B
:104CB000634A526810786B460122FCF769FB10B119
:104CC0004FF0FF30E0E75E4A126811795C4A5268A3
:104CD00010786B460122FCF75BFB10B14FF0FF3000
:104CE000D2E7574890F82400002853D00C200090B9
:104CF000534A12681179524A526810786B46012261
:104D0000FCF746FB10B14FF0FF30BDE73220FEF755
:104D100013F9C02000904A48807A00F0010020B1C9
:104D20009DF8000040F020000090454A126811797B
:104D3000434A526810786B460122FCF729FB10B1F8
:104D40004FF0FF30A0E73E48407C10B102200090B9
:104D500001E0002000903A4A1268D17B384A52683C
:104D600010786B460122FCF713FB10B14FF0FF30B7
:104D70008AE700200090324A12685179304A52681E
:104D800010786B460122FCF703FB002855D04FF04A
:104D9000FF3079E704200090294A12681179284AE7
:104DA000526810786B460122FCF7F2FA10B14FF00E
:104DB000FF3069E72248807C20B92148807A00F0E2
:104DC000010010B94020009001E0602000901C4AD2
:104DD000126811791A4A526810786B460122FCF762
:104DE000D7FA10B14FF0FF304EE73220FEF7A4F8AB
:104DF0001348407C10B10120009001E00020009099
:104E00000F4A1268D17B0E4A526810786B46012215
:104E1000FCF7BEFA10B14FF0FF3035E7084A1268D0
:104E20005179074A52681078054B10330122FCF77C
:104E3000AFFA10B14FF0FF3026E7002024E7000062
:104E4000A00000202DE9F04F8DB083460F460220D0
:104E50000C90424890F8240020B1002000F068F93E
:104E6000012600E0002603A8FFF722FC05A8FFF7B3
:104E7000C7FB01A8FFF766FC02A8FFF78BFC3748C9
:104E800090F80AA004A8FFF70BFC002407E000221A
:104E900039465846FEF7DEFE00B902E0641C022CDB
:104EA000F5DB00BF022C01D1002528E0002407E03B
:104EB000012206A909A8FEF7CDFE00B902E0641C94
:104EC000022CF5DB00BF022C01D1002517E006A95A
:104ED0003846FDF781FC00F0FF0809A95846FFF7A6
:104EE000F1F800F0FF090025B9F1000F01D145F0FC
:104EF0000105B8F1000F01D145F0020500BFFF2008
:104F000016490872FF2115484172C1724FF6FF71B0
:104F1000C181FF218172017401210173BDF80C0070
:104F200000F04EF99DF8140000F01AF8BDF80400E6
:104F300000F0C0F9BDF8080000F0FEF9504600F09E
:104F400049FA9DF81000FFF7C3F916B1012000F0EF
:104F5000EFF828460DB0BDE8F08F0000A00000205B
:104F600038B504461E48807A10B94FF0FF3038BD7E
:104F7000022C06D0042C07D0082C08D0102C0CD101
:104F800008E0002000900BE00820009008E01020CE
:104F9000009005E01820009002E04FF0FF30E6E7B7
:104FA00000BF0F48407A9DF80010B0EBE10F01D12F
:104FB0000020DCE70A4A1268D179094A5268107861
:104FC0006B460122FCF7E4F910B14FF0FF30CEE759
:104FD0009DF80000C110024841720020C7E70000A0
:104FE000A000002038B504465048807CA04201D182
:104FF000002038BD002C46D04C4A126811794B4A2B
:10500000526810786B460122FCF71CF910B14FF082
:10501000FF30EEE79DF8000020F020000090434AAA
:1050200012681179414A526810786B460122FCF7E8
:10503000AFF910B14FF0FF30DBE70320FDF77CFF45
:1050400002200090394890F8220020B19DF800001D
:1050500040F080000090354890F8230020B19DF882
:10506000000040F030000090304A1268117D2F4A55
:10507000526810786B460122FCF78AF9002851D05B
:105080004FF0FF30B5E7294A12681179274A526874
:1050900010786B460122FCF7D5F810B14FF0FF30C5
:1050A000A7E72248807A00F0010028B19DF80000AF
:1050B00040F02000009004E09DF8000020F0200067
:1050C00000901A4A12681179184A526810786B4693
:1050D0000122FCF75DF910B14FF0FF3089E70320A2
:1050E000FDF72AFF114890F8220010B180200090AF
:1050F00001E0002000900D4890F8230020B19DF8B9
:10510000000040F030000090084A1268117D074A04
:10511000526810786B460122FCF73AF910B14FF053
:10512000FF3066E701488474002062E7A000002099
:1051300038B50446214890F82400A04201D100204F
:1051400038BD24B31D4890F8250010B94FF0FF304A
:10515000F6E7002000F030FA0020FFF743FF174980
:10516000C88C00F0E9F800200090144949680878DC
:105170006B4601222321FCF70BF901210F4880F82F
:105180002410012000F018FAFFF778FD13E000204A
:1051900000F012FA0948007C009008494968087834
:1051A0006B4601222321FCF7F3F80021034880F825
:1051B0002410FFF763FD0020C2E70000A0000020DC
:1051C00038B504461F48807A10B94FF0FF3038BD1B
:1051D000FA2C09D0B4F5FA7F09D0B4F57A7F09D05A
:1051E000B4F5FA6F0CD108E0002000900BE0082025
:1051F000009008E01020009005E01820009002E0E8
:105200004FF0FF30E3E700BF0E48007A9DF8001032
:10521000B0EBE10F01D10020D9E70A4A1268917979
:10522000084A526810786B460122FCF7B1F810B1B9
:105230004FF0FF30CBE79DF80000C0100149087225
:105240000020C4E7A000002038B50446184890F8B4
:105250002300A04201D1002038BD14B130200090BD
:1052600001E0002000901248807C20B19DF80000F1
:1052700040F0020000900E4890F8220020B19DF806
:10528000000040F080000090094A1268117D084A31
:10529000526810786B460122FCF77AF810B14FF093
:1052A000FF30D9E7024880F823400020D4E700000F
:1052B000A000002038B504461E48807A10B94FF08F
:1052C000FF3038BDBC2C02DB0120009015E0622CC1
:1052D00002DB0220009010E02A2C02DB0320009069
:1052E0000BE0142C02DB0420009006E00A2C02DB09
:1052F0000520009001E0062000900E48C07A9DF83D
:105300000010884201D10020DBE70A4A1268917838
:10531000084A526810786B460122FCF739F810B140
:105320004FF0FF30CDE79DF800100248C172002019
:10533000C7E70000A000002038B504462448807A62
:1053400010B94FF0FF3038BD214890F8240010B15B
:105350004FF0FF30F7E71E48007D50B134B1282CE4
:1053600004DCE0B2FFF77AFB0020ECE70020FFF757
:1053700075FB042C01DA042404E0B4F57A7F01DD26
:105380004FF47A744FF47A7090FBF4F0401EC0B280
:1053900000900F4A126851780D4A526810786B4697
:1053A0000122FBF7F5FF10B14FF0FF30CBE79DF87E
:1053B0000000401C4FF47A7191FBF0F081B2044878
:1053C000C1810146C9894810FFF774FF0020BAE780
:1053D000A000002038B5044604F0700010B1012090
:1053E000009005E014B10020009001E04020009002
:1053F0002B4A1268917C2A4A526810786B46012227
:10540000FBF7C6FF20B1002125488172481E38BD38
:105410009DF8000020F04001214801730020009019
:1054200004F0400020B99DF8000040F00400009016
:1054300004F0200020B99DF8000040F00200009028
:1054400004F0100020B99DF8000040F00100009029
:1054500004F0080020B99DF8000040F038000090EA
:105460000F4A1268D17C0E4A526810786B460122AE
:10547000FBF78EFF20B1002109488172481EC6E764
:1054800024B1082C02D00020FFF7DEFE044884720D
:10549000002101753220FDF74FFD0020B7E7000025
:1054A000A0000020F8B504460D46164616B94FF088
:1054B000FF30F8BD1A48807A10B94FF0FF30F8E796
:1054C00020128DF80000E0B28DF801009DF8010077
:1054D0002844134949684989884202DD4FF0FF306A
:1054E000E7E70F4A1268117E0D4A526810786B4642
:1054F0000222FBF74DFF10B14FF0FF30D9E7EAB2BF
:10550000074B1B68597D064B5B6818783346FBF7E1
:105510003FFF10B14FF0FF30CBE70020C9E700009C
:10552000A000002070B588B002A905A8FFF78AFC8A
:105530000446072C3ED101A8FFF7DCF8059801F0DE
:1055400095F80646019901F0F1F8054601F052F888
:105550000590069801F08AF80646019901F0E6F8F0
:10556000054601F047F80690079801F07FF80646D7
:10557000019901F0DBF8054601F03CF8079005A819
:10558000FEF75EF86846FFF761F8BDF80010029874
:1055900048430290BDF80010039848430390BDF8BB
:1055A000001004984843049002A8FDF779FF0020FA
:1055B00008B070BD0120FBE738B50446214890F8DB
:1055C0002400C0B114B10220009001E0002000903E
:1055D0001C4A1268D17B1B4A526810786B46012224
:1055E000FBF7D6FE10B14FF0FF3038BD9DF800102C
:1055F0001448417423E01348807A10B94FF0FF300B
:10560000F3E724B10F48407C08B10020EDE714B166
:105610000120009001E0002000900A4A1268D17B2E
:10562000084A526810786B460122FBF7B1FE10B1B0
:105630004FF0FF30D9E79DF8001002484174002078
:10564000D3E70000A00000202DE9F04106460F46F8
:1056500000F070FC04000D4618BF0120284320F024
:105660000040C0F17F6000F1E040C00F0ED0301C60
:1056700018BF0120384320F00040C0F17F6000F1E6
:10568000E040C00F04BF0120FAF782FF2046294600
:10569000BDE8F08110B586B00446012144F2040053
:1056A000FCF71CFA4FF40070ADF8140003208DF8DD
:1056B000160018208DF8170005A91C48FBF73EFAC4
:1056C0004FF48060ADF8140004208DF8170005A990
:1056D0001648FBF733FA25208DF8000003208DF8DB
:1056E00001008DF8020001208DF803006846FBF7E9
:1056F00099FE01940020ADF80800ADF80A00ADF85D
:105700000C00ADF810000C20ADF80E0001A90848FF
:10571000FCF7CEFE012240F225510548FCF7A2FE1F
:1057200001210348FCF768FE06B010BD00080140E7
:105730000038014021F00042A2F16052B2F5801F12
:1057400001F0004328BFD2F17F6C0BD95FEA001C47
:1057500043EAC20242EB507018BF704728BF20F0E6
:1057600001007047B2F5801FBCBF184670474FEA72
:10577000410C1CF5001F02D2084601F09EB870B51E
:1057800000F078FB00000089FFF7F6BF4FF0004003
:10579000A0F580007047000010B591EA030F48BFE4
:1057A00083F0004300F1B484841A71EB030C05D23A
:1057B000121943EB0C03001B61EB0C01DFF824E131
:1057C0004FEA1154A4EB135C1EEA430F18BF9EEA84
:1057D000445F73D023EA0E03DCF1200E21EA04516A
:1057E00043F4801332D322FA0CFE10EB0E0023FA9E
:1057F0000CFE41EB0E01CCF1200E03FA0EFE10EB75
:105800000E0051F10001B1F5801FCCF1200E32D213
:1058100001EB045112FA0EF2BDE8104058BF704778
:10582000401C38BF5FEA420218BF7047002814BF0F
:1058300020F0010041F100014FEA410313F5001F80
:1058400038BF7047A1F1C04100F062BB012A43EBB1
:105850000302ACF1200CDCF11F0E32BF4FF0000E42
:1058600023FA0CF310EB030041EB0451B4EB115F8E
:10587000D0D0A1EB045101F5801149085FEA300056
:1058800001EB04510ED350F1000038BF12FA0EFEA6
:1058900008D1BDE81040C9E7401C38BF5FEA4202AA
:1058A000CAD1C3E7BDE810404FEA410313F5001F1A
:1058B00038BF7047A1F1C04100F02ABB9EEA445FA7
:1058C00008D011EA5E0FBDE8104004BF01F00041AE
:1058D00000207047BDE8104070B500F0CBFA00BF63
:1058E00064FBBE3E0000E0FF02494FF0000001F003
:1058F00090B800BF0000F87F491058BFC1F1404187
:105900005B1058BFC3F140438B42EFF300807047F8
:105910002DE9C04130B4DFF8A0C23CEA111418BF31
:105920003CEA131400F0EC8081EA03051CEA111430
:1059300044EAD57418BF1CEA131500F0C780A4EB25
:1059400005044FF0004545EAC12145EAC32341EA79
:10595000505143EA525304F17F74994204F50034E4
:105960004FEAC0204FEAC22208BF904200F09C805C
:105970004FEA13650FF24016765D4FEA134506FBBA
:1059800005F7C7F1807706FB07F74FEAD737A7FB84
:1059900003687642C8F58038A7FB06CE38BFA8F169
:1059A000010807FB08E64FF0000EA6FB028CE6FBA1
:1059B00003CEDCF1000CCEF1004E38BFAEF1010E8B
:1059C000A6FB0C584FF000074FF00005E6FB0E87D2
:1059D000A1FB08C6A0FB07CE16EB0E0645F100059D
:1059E000E1FB076515F1E04E7EBFA4F580345FEA68
:1059F00046066D4116F1800745F100054FEA17276D
:105A00004FEA066647EA0567A6F1DE46B6F1805F13
:105A10004FEA15251FD9384624F0010C05EBC47157
:105A2000BCF1FE6F01EB0C1102D8F0BCBDE80081A7
:105A300024425CBF01F5801E9EEAC47F02D4F0BC04
:105A4000BDE80081244238D4F0BCA1F1C041BDE8DA
:105A5000004100F05DBA4FEAD22242EA43524FEAD7
:105A6000D323A7FB02864FEAD02040EA415007FB30
:105A700003661EEA0E0F4FEAD12105FB026658BFEE
:105A8000A6EB0056B6EB00564FEA520E4EEAC37E26
:105A900018EB0E0E56EB530EBDD518EB02085E4107
:105AA0007F1C55F10005B6E74FF480154FF0000755
:105AB0004FF000064FF00008ADE7F0BC4FF00000DB
:105AC00001F1C04101F00041BDE8008111EA0C1F65
:105AD0000CEA131500D00CE013EA0C1F00F025802F
